S02B0000633A5C4D6963726F4672616D65776F726B504B5F76345F335C4275696C644F75747075745C544855D3
S315080100000CE000201D0001082C0001082C00010845
S315080100102C0001082C0001082C000108DFF808D083
S3150801002000F06AF805F064BDF8FD0120FEE700BF9F
S3150801003072B62C4BD3F8882042F47002C3F8882094
S31508010040294A012151605A6922F402725A61D3F888
S31508010050FC2042F4FE62C3F8FC20244B1A680A43CA
S315080100601A601A461168214B8907FBD500229A6046
S315080100701A6822F0A0621A601A6842F480321A607D
S315080100801A689003FCD5184B1B68DBB2112B184B69
S315080100900CBF40F2056240F205721A60134B154A0D
S315080100A05A601A6842F080721A601A4611680F4B34
S315080100B08901FBD549F202429A604FF480121A630C
S315080100C000225A639A634FF080521A644FF48042B1
S315080100D05A641A6822F001021A60A3F580330122D4
S315080100E01A60704700ED00E0002004E00038024085
S315080100F0003C02400C54400708B5FFF799FF024B34
S315080101009847024B984708BD9D0101084D01010812
S3150801011008B5FFF78DFF014B984708BD9D010108FA
S31508010120814210B511D002F0030322F0030204E064
S3150801013050F8044B41F8044B043A002AF8D102E07E
S31508010140845C8C5401329A42FAD110BD08B50B4829
S315080101500B490C4AFFF7E4FF0B490C4A0C48FFF719
S31508010160DFFF0C4B0C4A23F00303002102E042F89F
S31508010170041B043B002BFAD108BD00BFD00F0808A9
S31508010180002E001000000000002E0010080B0000D1
S31508010190D00F0808903F000010390010034A136B6E
S315080101A06FEA53236FEA432313637047003802400B
S315080101B007B5002301933223ADF8043001238DF8E6
S315080101C007300198024B98470248034B98470EBDE2
S315080101D05505010898D90408255A010830B5094C6E
S315080101E0094B85B005462046984700238DE8180037
S315080101F00290042128460322044CA047012005B099
S3150801020030BD00BFA3D9040815740108B11401084B
S3150801021070B50846194B11461646984700282CDB37
S3150801022033689869164B98470546002820D03368E5
S315080102305A6951694268914218D0124C1248A0472E
S315080102401248A0471248A0471048A0470F48A047A0
S3150801025032681048536991695A696B68A0470B4817
S31508010260A0470948A0474FF0164070BD8268DA6179
S3150801027009483168094B9847002070BD391F0208A3
S31508010280C5DC010869300108D9D9040823DA04084C
S315080102906DDA0408B7DA04081C5700107DFC01085A
S315080102A02DE9F3412A4B06461546684601AA0C462E
S315080102B0984700B3009AF2B19368D0689B6898474B
S315080102C0037803F00203DBB2ABB92D1B033525F026
S315080102D0030528460C211F4B98470446002830D0B1
S315080102E0009B01999A68D868D76823462A46B84771
S315080102F0002829D0651921462A46174B1748DFF8E1
S315080103006C80174F9847174B291B204600229847A0
S31508010310154B186004E0636E0333E41824F00304F4
S3150801032004F17C039D4209D92046C04738B13046BD
S3150801033021466A46B8470028EDDA00E00020BDE804
S31508010340FC814FF07A40FAE74FF07740F7E700BFB4
S3150801035055600108292C020869300108E8DA040801
S3150801036011020108C106010800590010E5F2010849
S3150801037084B02DE9FF41159D04460BA880E80E00BF
S315080103800023029355B97C2001212D4B98470290F1
S3150801039000284CD029467C222A4B98472A4EDFF85A
S315080103A0C8800BA802A97C22B04700283AD0029F30
S315080103B03846C047002835D07F6E033727F0030734
S315080103C04DB938460C21214B9847019018B9029826
S315080103D01F4B98472BE06FF07B0101220BA81D4BA1
S315080103E098470BA801A93A46B047D8B1019F1A4BBD
S315080103F03846984708B9F5B90AE0184B1848984796
S315080104002046394603AA174B9847002804DA8DB9BE
S3150801041001980F4B984706E0039B1A6942F00802B8
S315080104201A61BEE735B90298094B984702E04FF0C1
S315080104307A4000E0002004B0BDE8F04104B07047FE
S315080104406D2B0208A9870408AD640108292C020846
S31508010450F1DA0108C9650108E5F201086930010800
S3150801046007DB0408110201087DF20108F0B505460B
S3150801047093B02748274EB04728462749274A284B8D
S3150801048098470028044639DB264808ACB047204679
S315080104905021254B984710B92448B0471CE0244EF3
S315080104A0119A9368D0689B6898470378C3F3400309
S315080104B007930DF12C0EBEE80F006F460FC79EE895
S315080104C0070087E80700284694E80E00B04720464B
S315080104D0184B98470028E3D10E4B174898471748F9
S315080104E0174B98470028044608DB1648164B9847C9
S315080104F01248164B98470028044604DA2146054B4C
S315080105001348984700E00024204613B0F0BD00BF09
S3150801051022DB040869300108F0810508B40D0808D2
S31508010520A10201082FDB0408B965010850DB04089C
S3150801053071030108A963010884DB04081C5700102C
S31508010540D5110208C85000103D3F0108CD5D0208CB
S3150801055091DB04082DE9FF47DFF85C813D4CDFF8A4
S315080105605C91039087B2C0F30745060EC047002386
S315080105700421032238480093A047C8473748A047B3
S31508010580374B1F809D70DE70364B9847002820DB5D
S315080105903548A047354B1DB11A6842F000421A602A
S315080105A03248334B9847002813DB3248A047324B71
S315080105B098472B4801230371304B9847002808DBDD
S315080105C02F48A04729482F4B00213A4698472E48DD
S315080105D0A047264B1A6812F0005214D1196821F463
S315080105E040611960196841F400611960274B1B685D
S315080105F0186828B10123009309211346244DA847F9
S315080106000EB1244B9847194B1A68910020D59D685D
S31508010610EA071BD505F00505A5F105035D4245EB7E
S31508010620030500201C4B98471C481D4B98471D4B3A
S3150801063098470B4B4FF0000A83F804A01A4B9847CA
S315080106401A4B984750461A4B98478FE7194B9847C4
S31508010650BDE8FF87693001089FDB0408C1DB040890
S315080106601039001069280208CFDB040890510010E0
S31508010670ADAF0108DDDB0408510A01086D04010864
S31508010680F1DB0408416B0208FADB0408CC560010BA
S31508010690654601080D0A01081D0E0808C850001014
S315080106A02D340108715802084559010819580108DD
S315080106B0290E0808FD5401085DE70108DDDA01087D
S315080106C010B5074B08E010F8014B84EA12640139AA
S315080106D053F8244084EA02220029F4DC104610BDAE
S315080106E004DC04087FB501460A4B6846984700288A
S315080106F00DDB039BDB7B14225A43074BD05800F4CE
S31508010700C020A0F5C023584240EB030000E00020BA
S3150801071007B000BD85F0010834E7040830B50B4B76
S31508010720D3F8B0410A4B87B005468DE8180003A8EF
S31508010730084B69462A4698470028A3BF607C04F1FE
S31508010740140300FB0530002007B030BD905100109E
S3150801075010000100E1C201082DE9F043064685B003
S315080107600C46174600283DD0057804A841F4803385
S3150801077040F80C3D1146043008221D4B9847A54206
S3150801078027D0192C05D1102D2DD17368002B2AD10C
S315080107901FE0102C04D1029828BB192D24D118E08A
S315080107A01423144A03FB05F19046515811F4003FEE
S315080107B0994601D1104B984709FB05835B79042BB0
S315080107C011D10C4B142202FB04346379032B0AD88A
S315080107D02C463046394600F8044B0822044B984704
S315080107E0012001E000E0002005B0BDE8F08300BF6C
S315080107F07586040834E70408115501082DE9F04304
S3150801080089B004460D4691461F46DDF8408000280A
S315080108107AD00E68002E73D0002A73D006F1B00381
S315080108200B6030463A4B0021B022002F08BF2746FD
S3150801083098473760237873606378B3606388F36099
S31508010840B8F1000F02D0D8F8003006E002A8214618
S31508010850304B9847002802DB039BC6F8983073682B
S31508010860013B192B50D8DFE803F00D0D0D0D0D0DC9
S315080108700D0D0D0D0D0D0D0D142C36363A2C4F4F51
S315080108804F4F0D4406F11000211D0822224B9847AF
S315080108903AE06468C6F894407CB120461F4B9847F5
S315080108A00346C6F89000224606F110007F2B28BFA2
S315080108B07F2380211A4CA04726E0C6F8904034745D
S315080108C022E0CDF8008009F1FF326068294600234D
S315080108D0FFF794FF19E06368C6F8983014E0E368F7
S315080108E0C6F89C30E388C6F8A030A368C6F8A430D9
S315080108F00AE06368C6F8A830A368C6F8AC3003E016
S31508010900304602E0104600E0012009B0BDE8F08358
S31508010910A987040885F00108758604081574010875
S31508010920E573010838B505460C4618B10378142B4A
S3150801093008BF456825602DB12B78102B36D16B6819
S31508010940002B33D10123002023716071A37138BDB7
S31508010950002323712A78102A03D16B685B78C3F3C5
S315080109600013A268637102F06001202901D04029B1
S3150801097001D1012313E002F01F02102A12D8012126
S3150801098001FA02F00D4A024062B13BB90C4BE2682A
S315080109909B6BD21A534243EB020300E00B46A37149
S315080109A0002038BD0123A371002038BD04F10800D9
S315080109B02946044B98470028CADA38BD02010100C6
S315080109C06853001085F0010808B58368C0689B68FC
S315080109D0984708BD08B50A46014B0021984708BD46
S315080109E0A98704080378102B0BD1406860B10378F6
S315080109F0122B08D1437813F0100F14BF00200120E1
S31508010A0070470020704700207047000038B50A4932
S31508010A100A4B0B4C0B4D40F2015098470A480B4BB9
S31508010A2098472368980005D42368990302D4044893
S31508010A30A847F6E738BD00BF04E004082D6D010894
S31508010A4090510010D1D2010806E004086930010866
S31508010A502DE9F0431E4B1F4E1F4C85B098471AA32C
S31508010A60D3E9002310EB020841EB030900230293A3
S31508010A7037462368186840B142F2010308220093F9
S31508010A8000210DEB0203154DA8473368002B14DB33
S31508010A90134B984758B910E0124806E00C4B984793
S31508010AA0804579EB0103E4DA0F48104B9847104B60
S31508010AB00848984705B0BDE8F0830E4B05489847A6
S31508010AC03B685B00EAD5E7E780F0FA020000000020
S31508010AD0617A010890510010CC560010654601084C
S31508010AE00D55010826E0040838E0040869300108B4
S31508010AF009D30108D1D201081FB5074B029000930B
S31508010B00064B074A1B68074C0193074B00681B688D
S31508010B10A047002004B010BDB8E00408B0E00408FE
S31508010B20C0E0040879430108B4E0040870B5154D1E
S31508010B30154C164B164E23608AB0B0212846B0478D
S31508010B4004212068B047134B59689B68994208BF2E
S31508010B50114A23680ABF12681D601A6020680F4B84
S31508010B60984700280CDB0E4B6846502198470D4BD9
S31508010B7010B1099A1A6000E018600B4B98470020DB
S31508010B800AB070BD3C580010CC560010F058001041
S31508010B90D5090108002E0010A03A0010F90A01082B
S31508010BA0B96501081839001005AB010808B5034BEA
S31508010BB01B681868024B9847002008BDCC560010E0
S31508010BC071440108006808B53030014B984708BDE3
S31508010BD0D101030808B50068014B984708BD00BF55
S31508010BE039450108064BD3F8D40003E0C2698A42A5
S31508010BF004D018464368002BF8D11846704700BF41
S31508010C00905100100C4A10B5D2F8583103E09C698E
S31508010C1084420ED00B4659680029F8D1D2F86431BE
S31508010C2003E09969814204D013465A68002AF8D12B
S31508010C301346184610BD00BF90510010F8B5164866
S31508010C40164E0C461746B04705461548B0472D18A7
S31508010C50681C800038600121124B98472060C0B19A
S31508010C600346114943F8045BD1F8582103E0926918
S31508010C7043F8042B024650680028F8D1D1F86421BC
S31508010C8003E0926943F8042B024650680028F8D11C
S31508010C90F8BD4FF07A40F8BDE852001001C10108CD
S31508010CA0F4520010292C0208905100102DE9F8433E
S31508010CB008469946254B14469847064600283DD0CE
S31508010CC0DFF88C800025D6F8503100271EE0012D6B
S31508010CD01AD12268D3F828C03901083151180A1DDA
S31508010CE0C1F804C0D3F81CC0996BC1EB0C01516063
S31508010CF029B1D6F858C1634501D001395160D96C7B
S31508010D005B6AC969D3609160013703465868002850
S31508010D10DDD16DB938010C30C9F800004FF4006116
S31508010D20C047206070B1F36907604360336A836026
S31508010D300135022DC7D10020BDE8F8834FF02140C7
S31508010D40BDE8F8834FF07A40BDE8F883050C010841
S31508010D50292C020830B51B4B02461868546A40F024
S31508010D6080401860D36913F0020F85B016D114B10B
S31508010D70646804F001040023124802930068124DC6
S31508010D8010F4006018BF0420039002A80090082000
S31508010D900190086811460122A84703E014B1646866
S31508010DA004F00104074B1A6812F4406F07D11A6858
S31508010DB014B142F0004201E022F000421A6001201B
S31508010DC005B030BD905100107D4601082DE9F04F60
S31508010DD0C66916F002068BB00746894640F08D8033
S31508010DE0B246B0463446474B9847054650B9009037
S31508010DF001903946D9F80000434C01222B46A047F9
S31508010E0028467BE0012E11D10C2202FB08F03F4B4C
S31508010E109847044650B9009001903946D9F8000020
S31508010E20394D32462346A847204667E0384B2846BF
S31508010E309847436900220893964643E081690392DD
S31508010E4089180290CB68099300239C4631E016B9AC
S31508010E5008F101082AE00A694FF00C0B0BFB0AFBA3
S31508010E60D21804EB0B00CDF81CB00490D1F800B0F1
S31508010E70506805928A68069000FB02BB0798059A96
S31508010E8044F800B0D2F808B006988A680BF1010B4D
S31508010E90C0EB0B0B02FB0BFB04980A69C0F804B004
S31508010EA012F803B00AF1010AC0F808B00CF1010CF6
S31508010EB00C33DDF824B0DC45C9D1039A02980EF14A
S31508010EC0010E1432089B9E45B8D12846114B984706
S31508010ED005460028AAD10136022E84D10C2303FB2C
S31508010EE008F30193D9F8000000942B4639460122EC
S31508010EF0054DA8472046084B984701200BB0BDE889
S31508010F00F08F00BFE16001087D460108492C0208FF
S31508010F10C9090108F960010821DB0108F7B52F4E57
S31508010F202F4D30680F461446A84739466A4601AB25
S31508010F302C4FB8473068A847009A8369142101FBEA
S31508010F400232019B12690C214B43032C37D8DFE887
S31508010F5004F03802111BD358234A934231D022D8C0
S31508010F60A2F5015293422CD01AD9204A934228D08D
S31508010F70303222E0D258D3B2502B22D01C4B134028
S31508010F801B4A93421FD11CE0D358174A934218D0E3
S31508010F9009D8A2F50152934213D0164A934210D0AA
S31508010FA044F2400209E0144A93420AD001D8403A71
S31508010FB003E0124A934204D00D4A934201D000201D
S31508010FC000E00120FEBD0E4B58680E4B9847A0F174
S31508010FD00102504240EB0200F4E700BF1839001045
S31508010FE0C9090108F56101089040004030400040F8
S31508010FF03040014060400040E0400040F040004081
S31508011000002E0010158801082DE9F04FDFF80C9223
S315080110107C4E7D4C8BB00D4606900493D9F80000A2
S31508011020DDF850B09046B047294608AA09ABA04753
S31508011030002800F0AF80D9F80000B047089BCDF82A
S315080110400C80142253438269049CD158CDF81C8024
S315080110508246D018691A8368B1FBF3F203FB1211B1
S31508011060012790E0DAF8180014225A4386188258A4
S31508011070B368C2EB0509B9FBF3F9C1EB030875E0DF
S31508011080B268099B059232690C2101FB0322926819
S31508011090914507D9F26801339342099302D35B4B11
S315080110A0984766E006985A4B29465A4698470028B3
S315080110B000F0A480039A424538BF9046BBF1030F5E
S315080110C047D8DFE80BF00202323E9AF8003003F007
S315080110D00203DBB233B12046294642464D4B9847B7
S315080110E0012737E0BBF1000F06D107984A4B0121CA
S315080110F09847044600287FD0484A13689A68D868F2
S31508011100D768294642462346B8470746BBF1000F2A
S315080111101FD1049B20461A68414B41469847049AB9
S31508011120404B10602046984713E03C4A136800215B
S315080111309A6800911769D868294642462346B847EE
S3150801114006E0364B1A689368D0685B6A2946984761
S31508011150074677B1039AC8EB0202002A039208DD13
S3150801116044444544DDF8148009F101097368994539
S3150801117086D3039B00218B4209913EDD002F3CD08B
S31508011180089B01330893089BDAF814209342FFF46D
S3150801119069AF32E0244A9369D2699D421A4405D35C
S315080111A0954203D208EB0501914207D900921F48DF
S315080111B01F4C29464246A04700201FE0BBF1020FFB
S315080111C00CD0BBF1030F0ED0BBF1010F15D104985A
S315080111D0104B29464246984758460FE02846049937
S315080111E00C4B424606E0B8F1000F06D0114B2846D3
S315080111F0FF214246984700E000E001200BB0BDE818
S31508011200F08F00BFC9090108F561010811550108E8
S315080112101D0F0108758604086D2B02081839001080
S31508011220C1060108F1DA0108002E001047E004089A
S3150801123069300108A98704082DE9F043134A436A6E
S31508011240814610685D68ADF5806D83B08846B8B192
S315080112500124B5F5806F28BF4FF4806502AE00946E
S315080112602A4608460A4F19683346B8470195D8F8F9
S3150801127000000096494622460023064DA847204607
S3150801128003B00DF5806DBDE8F08300BF1839001075
S31508011290091001087D4601080B4B426A73B51C68A3
S315080112A005460E4674B10221009102F10803074C66
S315080112B006CA3046A047044629463068044D2246E8
S315080112C00023A84720467CBD1839001009100108DB
S315080112D02D4801082DE9FF41436A0D4F4FF00008DB
S315080112E003AECDF8008004460D46084693E806008D
S315080112F03346B847042301932868009621460122FC
S315080113004346044CA047012004B0BDE8F08100BF64
S31508011310091001087D4601080B4A436A73B514682A
S3150801132005460E4674B1032200920846074C93E817
S3150801133006000023A047044629463068044D224684
S315080113400023A84720467CBD18390010091001085A
S315080113502D48010838B5446A054D03460122086837
S3150801136019460023A84723689847012038BD00BFBE
S315080113702D480108F8B5456A04460E460DB32B6893
S31508011380D8070CD50868154F214601220023B8470E
S31508011390134B2020002164229847124B9847124B81
S315080113A0984770B12A68114B12F0020F03D09A6858
S315080113B042F0010204E0510703D59A6842F005029A
S315080113C09A600A4B30681A6842F000521A60214640
S315080113D001220023014CA0470120F8BD2D48010830
S315080113E0298A0108B15601080D55010890510010C6
S315080113F030B50E4A0E4D89B0034690690290D06900
S315080114000390106A526A059006920222079202AA6E
S31508011410009218220124019208680494194622466A
S315080114200023A847204609B030BD00BF002E001092
S315080114307D460108012070471FB5034604AA0748DF
S31508011440074C42F8040D0092042201920868012211
S3150801145019460023A047012004B010BD9051001081
S315080114607D46010830B5436A02460F481C6805687F
S315080114705B682C430460046824EA03030360D369A8
S3150801148013F0010385B00BD1046804A840F8044D94
S315080114900090042001900868044C11460122A047D7
S315080114A0012005B030BD00BF905100107D460108EE
S315080114B038B58380BDF81030069DC3801446059A59
S315080114C0018000234480037242B13DB10830372DB3
S315080114D034BF2B4637233821014CA04738BD00BFFE
S315080114E0E57301082DE9F041A2B022AC8846002136
S315080114F044F8741D456A444B0646742220469847AB
S315080115002B68013B062B6FD8DFE803F004121E6E29
S315080115102C34630022AC40F21F4344F8743D3B4B24
S31508011520984700285DD0059B43F02003059358E0B2
S31508011530374B9847374B05909847374B069098474E
S31508011540012207900C2342E004230A933348344BC3
S31508011550344D9847314A034614212046A8470122AB
S31508011560182344E02046304B984701283CD10246CF
S3150801157074233CE02D4F2A4B3846984700258DE8C1
S31508011580A00002902B46204604210322284FB84783
S31508011590284BD3F8043183B15B6973B15A8CD88B64
S315080115A0198C9B8BADF85A20ADF85430ADF856001E
S315080115B0ADF858100122482319E0ADF85450ADF89A
S315080115C05650ADF85850ADF85A500122482305AC8B
S315080115D00DE02046184B9847012805D102464023BD
S315080115E005E00122042302E0002213461446009472
S315080115F00193D8F80000114C31460023A047012079
S3150801160022B0BDE8F08100BFA98704080D5501087D
S31508011610398101083D8101084181010883E00408F7
S3150801162015740108E5730108296C01088FE004089F
S31508011630B11401081C570010DD0101087D46010897
S3150801164030B5436A85B004460D461868094B4FF410
S3150801165000619847039050B103AB009304230193AB
S315080116602868214601220023034CA047012005B022
S3150801167030BD00BF6D2B02087D460108F0B5134C3D
S31508011680456A134B064685B060680F469847D8B138
S3150801169004AB012243F8042D009304230193314638
S315080116A0134638680B4EB047002120204FF4967236
S315080116B0094B984760682968084B9847A0F1010EBD
S315080116C0DEF1000040EB0E0005B0F0BD002E001063
S315080116D0958701087D460108298A0108B587010809
S315080116E070B5446A164B8AB005460E4603A81821FA
S315080116F09847B4F85430ADF81030B4F85630ADF810
S315080117001230236C0393636CADF81830A36CADF8F3
S315080117101A30E36C0793236D03A908932046094BF6
S31508011720094C98470AAB294643F8040D009304234C
S315080117300193306801220023A04701200AB070BD39
S31508011740D509010807AB01087D4601082DE9F04FC7
S3150801175087B0446A234BDFF89C80002582468B4676
S3150801176002A80C21059505AF984704F10C060095CA
S31508011770019794E803003246A368C047E0B1059B88
S31508011780AB4219DD03F108094846174B9847054648
S3150801179090B100F108038DE88800324694E8030009
S315080117A0A368C04728B1059B6B6001232B604B4694
S315080117B004E028460D4B98470C2302AD01930122FC
S315080117C000230095DBF80000094C5146A04702ABFF
S315080117D09D4202D02846054B9847012007B0BDE82F
S315080117E0F08F00BFD5090108492C020821DB010841
S315080117F07D4601080DAB01082DE9F04387B00025A8
S315080118004FF00408446A244B04954FF48072064647
S315080118108946CDF81480FF212048214F984704AB0B
S31508011820009305AB019301212A46039520682B46AF
S31508011830B847049A012A10D106ABD9F8000043F833
S315080118400C2D31468DE80801164F2B46B847202046
S3150801185029464FF4C872144B984704F1080194E8D5
S315080118600500124B984740B12068114B98470390E1
S3150801187018B920680F4B9847039003AB00930423CC
S315080118800193D9F80000074C314601220023A047ED
S31508011890012007B0BDE8F083A98704081C390010A8
S315080118A00DAB01087D460108298A010811AB01081B
S315080118B015AB010819AB010870B586B04023446A17
S315080118C005934FF480721A4B05460E461948FF21B7
S315080118D0984702A80C21184B984720681549174BB9
S315080118E005AA984788B14FF48470154B9847044662
S315080118F058B1059A0F494260012340F8083B920006
S31508011900104B98474FF4847301E00C2302AC019302
S31508011910294600230122009430680B4DA84702ABE3
S315080119209C4202D02046094B9847012006B070BD5B
S31508011930A98704081C390010D50901081DAB01083F
S31508011940492C0208758604087D46010821DB010831
S315080119502DE9FF41446A884661684B093F2B0546D4
S3150801196027D8224E06EB830301F01F025B6823FA90
S3150801197002F3DB071AD504F1080300930423019344
S3150801198004F110022068E368194FB8470390E0B1E3
S3150801199063685A0906EB820603F01F03012202FA5D
S315080119A003F3726822EA030373600EE001230393CB
S315080119B00BE004F1080300930423019304F11002D8
S315080119C02068E3680A4CA0470390039858B103AB13
S315080119D0009304230193D8F80000064C29460122F6
S315080119E00023A047012004B0BDE8F0811839001092
S315080119F021AB01087D460108F0B5446A154B6268BA
S31508011A0004F1080585B006460F4620682946984719
S31508011A1004AB314643F8040D009304230193386857
S31508011A200D4E00230122B047039B53B10021C82262
S31508011A300A4B2020984720686268094B294698472F
S31508011A4003900398A0F10102504240EB020005B051
S31508011A50F0BD00BF25AB01087D460108298A0108AA
S31508011A6029AB0108F0B5ADF5357D07460E46BA989E
S31508011A70104CB4A903AD41F8045D00901046042248
S31508011A80A047044658B1B39B00955D1B019538687C
S31508011A90094C314601220023A047012006E0386897
S31508011AA0064D314622462346A84720460DF5357D83
S31508011AB0F0BD00BFFD0701087D4601082D48010854
S31508011AC0436A70B505460E4608461968084B984795
S31508011AD0044618B10748084B21469847221C18BFE7
S31508011AE001223068054C29460023A047012070BD14
S31508011AF0E50B0108905100104DBA01082D4801085F
S31508011B00026A38B50D46416A2423043A044604316B
S31508011B10B2FBF3F20548064B98472868214601228D
S31508011B200023044CA047012038BD00BF9051001086
S31508011B30612E02082D48010870B58CB003AC054624
S31508011B400E460B480B4B21469847014618B92046C5
S31508011B502422094B98472423009401933068074CA3
S31508011B60294601220023A04701200CB070BD00BF01
S31508011B70905100102DB40108A98704087D46010873
S31508011B80084A30B50023D2F8004106E052F8040BA2
S31508011B9010B1C5688D4203D00133A342F6D10020A6
S31508011BA030BD00BF1C57001070B50D68084B0C46B8
S31508011BB0290C1646984748B1036BADB29D4204DA23
S31508011BC030462146034B984770BD002070BD00BFC3
S31508011BD0811B010819EA010870B50D68084B0C4606
S31508011BE0290C1646984748B1436BADB29D4204DAB3
S31508011BF030462146034B984770BD002070BD00BF93
S31508011C00811B010881ED010870B50D68084B0C466A
S31508011C10290C1646984748B1836BADB29D4204DA42
S31508011C2030462146034B984770BD002070BD00BF62
S31508011C30811B010831EE010838B508461D46094BD6
S31508011C401446984700232B7050B1D0F8500103E091
S31508011C50621E2CB1184614464368002BF8D1184663
S31508011C6038BD00BF050C01082DE9F04F4E4B466AF9
S31508011C709DB0B4681793002381468B4618930FA825
S31508011C8017A94A4B98471CB12046494B9847044621
S31508011C9000251B9517A831462A46464B9847A84260
S31508011CA082465ADB4FF0FF338DE828004248189ADE
S31508011CB0424D04231BA9A847002882464DDB1B9BDE
S31508011CC00CB1C3F87041D3F85841226B557A002DEF
S31508011CD067D003A8E16A3A4B9847079B6469980657
S31508011CE006D531490023013D84E80A00EDB20C34DA
S31508011CF013AF03A83946DFF8D880C04700288246C3
S31508011D002BDB0DF10C0CBCE80F000DF1240EAEE82F
S31508011D100F009CE803008EE8030008E009A839468D
S31508011D20C0470028824618DB9DF84C309BB90E9BAC
S31508011D30002BF3DC0027DFF89C8009E01E482146CA
S31508011D4003AAC0470028824607DB0137FFB20C34D5
S31508011D50AF42F3D125E04FF0224A1B9818B1194B2F
S31508011D60984700231B930FA8174B9847BAF1000F02
S31508011D7005D11B9B7268C3F868219B6901E04FF086
S31508011D80FF331A931AAB009304230193DBF800007F
S31508011D900E4C494601220023A04701201DB0BDE88B
S31508011DA0F08F4FF0000ADEE710000100DDBA0108E6
S31508011DB0050C0108DD2A0208905100108558020811
S31508011DC01DE901087554020811BB01087D46010881
S31508011DD045FF0108F14302087FB5002406460D4672
S31508011DE008460294039402A903AA0D4B9847A042F8
S31508011DF006DA2246234628680A4C3146A04709E0F6
S31508011E00029B28680093039B3146019301222346CE
S31508011E10054CA0470298054B9847012004B070BDB0
S31508011E203D0C01082D4801087D460108F1DA010833
S31508011E30F0B585B0436A124F0024039405460E4651
S31508011E4008460294196802AA03ABB847A04206DA03
S31508011E502246234630680B4C2946A04709E0029BD7
S31508011E6030680093039B2946019301222346064CB9
S31508011E70A0470298054B9847012005B0F0BD00BF61
S31508011E80AD0C01082D4801087D460108F1DA010863
S31508011E9030B5436A044685B018680B4B0D4698471A
S31508011EA020B10A4B98470123039300E0039003AB43
S31508011EB00093042301932868214601220023044C38
S31508011EC0A047012005B030BD050C0108755402086C
S31508011ED07D460108436A70B504461868084B0E46E4
S31508011EE09847054608B1074B98472A1C18BF01228F
S31508011EF0306821460023044CA047012070BD00BF6D
S31508011F00050C0108D55402082D480108436A70B525
S31508011F1004461868084B0E469847054608B1074B0C
S31508011F2098472A1C18BF0122306821460023044C11
S31508011F30A047012070BD00BF050C0108AD54020879
S31508011F402D4801082DE9F04F436A074685B0186800
S31508011F50254B88469847002843D0D0F87061DFF8AA
S31508011F60A8B0F368DFF8A4A0DFF894900EE01D6925
S31508011F7005B9D84705F13000D04750B1C3681B48A9
S31508011F800393C847039B834222D023465C68002CEF
S31508011F90EDD10C20164B9847054629461348154A94
S31508011FA0154B984700281BDBD6F864316C689B698A
S31508011FB03046E36104F124022146104EB047002859
S31508011FC00EDB0A480E4B984704F130022146B0470A
S31508011FD000230093404639462A460A4CA04700E0AA
S31508011FE0002005B0BDE8F08F050C010890510010DE
S31508011FF0492C02089C540010E5300208651A0208AB
S3150801200059BA0108651A01081155010841DD010887
S31508012010436A37B504461868074B0D46984710B109
S3150801202000F1300200E002460023214600932846CB
S31508012030024CA0473EBD00BF050C0108651A010800
S3150801204073B5426A164C02AB002003F8010D084627
S3150801205006CAA047064608B3C568D5F814310BB9B0
S31508012060104B9847D5F814416A6B2423013C03FBAE
S3150801207004543C3463689A4201D00A4B984794F950
S315080120802030002B01DB074B984794F82030E66196
S3150801209003F0B80343F0440384F8203001207CBDE3
S315080120A0391C010811550108F0B589B0426A184F63
S315080120B008AB002604460D46084603F8016D06CA14
S315080120C0B8470246E0B1836AC1690293836B114A34
S315080120D0CB1A0393036B597A04919B7AC16B0593C7
S315080120E003692868CB1A9B105343069302AB0093E6
S315080120F014230193214601223346074CA04704E0E5
S3150801210021462868054C1346A047012009B0F0BDB1
S31508012110391C0108ABAAAAAA7D4601082D4801085F
S315080121202DE9F341446A144F02AB4FF00008054606
S315080121300E46084603F8018D94E80600B84702469C
S3150801214090B1A368816BCB18C3610169E3680C2060
S3150801215000FB0313D363536A306823F000535362B9
S3150801216029460122434602E0306829461346034CB4
S31508012170A0470120BDE8FC81391C01082D4801084A
S31508012180F0B5436A0E46196885B0054619B9164B66
S31508012190C3F8B0111CE001A8144A154B984700284A
S315080121A018DB114B029CD3F8B03173B103F114015A
S315080121B0E768DB689F4204F114004FF00C0201D274
S315080121C07A4300E05A430B4B9847074BC3F8B04193
S315080121D0012200E000223068074C29460023A04767
S315080121E0002005B0F0BD00BF90510010A8530010A3
S315080121F055670208758604082D4801082DE9F0433C
S315080122009BB0446A484F1AAB002680460D460846DD
S3150801221003F8016D94E80600B8478146002878D08E
S31508012220A268012A03D006D3022A73D107E0016BFB
S315080122304369497A09E0016B8369897A05E003698B
S31508012240C16B3A48C91A89104143E068884263D28A
S315080122500C27022A07FB003762D03846344B9847C9
S3150801226000285DD0A368E668D9F82C10D9F8302083
S31508012270012B03A807D12F4B9847079B701C9B0678
S3150801228004D538B949E02C4B984703E0064601E0E6
S315080122901E4600E0294C03A80FA9A047731E002E6D
S315080122A0F6D1274B3978142202FB013149790429E1
S315080122B016D19DF8441002FB01335B79032B0FD825
S315080122C07B88012B01D01F4B984797E8070013AB72
S315080122D083E807009DF844203E468DF84C201F46AA
S315080122E0194B09A812A998470C9BDB8A03F03003FE
S315080122F0302B05D10AAA07CA16AB83E8070000E006
S3150801230000230093284641463A4633460F4CA047D8
S3150801231003E002E0304600E000201BB0BDE8F08390
S3150801232000231E46EDE700BF391C0108ABAAAAAA7D
S31508012330E50601081DE9010835E9010845FF010817
S3150801234034E7040811550108CDEF0108651A01089B
S315080123502DE9F043476A93B00D463968064611914F
S3150801236000292AD07B68002B27D002A8404B984722
S31508012370002879DB03AA07CA0BAB83E807007C6848
S31508012380DFF80C81013C99460C9A0B9B926F0D99CB
S3150801239098B202EBC00250884A7D821A944207D34A
S315080123A0498A1B0C0C191B04A21A1343BB6004E0CF
S315080123B04846C0470028E7D157E007F108082846EC
S315080123C041460EAA2B4B984700284ED0119C24B99A
S315080123D04046294B984711902BE07B6833B90F9BF0
S315080123E0BDF83820DB6F33F812307B607868002837
S315080123F03BD02378113B012B05D9204611A91F4B48
S315080124009847002830DB119C23780D3B012B0AD80D
S315080124106168A36800220A4319490A9308AB08911F
S315080124200992119305E07B680C2202FB034411947F
S3150801243000241198134B984770B102A80EA9124BA4
S315080124409847002805DB059BDB8A03F03003302B10
S3150801245001D0002000E003A8009023462846314613
S31508012460119A0A4CA04700E0002013B0BDE8F0839A
S3150801247085F00108D91B010825F601083DCD01089B
S315080124800A000100E506010811010208651A01089A
S3150801249021ED01082DE9F043446A244A23688DB0E9
S315080124A00546049303920E4606A803A96268204BC3
S315080124B0984700282BDBDDF81C8098F8127047B185
S315080124C0676898F8112008F1140307FB02370024FE
S315080124D008E003A806A9174B9847002822DB4FF006
S315080124E0FF3403AF3846144B984798B10DF12409C8
S315080124F008F108014846114B984758B10B9BD88AF1
S3150801250000F0300030280CBF4846002002E00020C9
S315080125100446074600902346304629463A46084C63
S31508012520A04700E038460DB0BDE8F0831000010071
S31508012530E1C2010869350208E506010819EA010838
S31508012540651A010813B50023446A00930246084632
S3150801255011462268014CA0471CBD00BF651A010837
S31508012560436A37B504461868054B0D469847002354
S315080125700246214600932846024CA0473EBD00BFAD
S315080125801D070108651A010838B5436A0D681979E6
S31508012590044603F108021868044B98472146024687
S315080125A000232846024CA047012038BD59070108D7
S315080125B02D480108F0B5456A194B2C6887B00646BF
S315080125C00F468DE818000CB3A47CE4B903A8694644
S315080125D06A68144B9847002818DB684603A9124B0A
S315080125E09847002812DB9DF80010104B05F10802E8
S315080125F06846984748B12246684603A90C4B98474E
S31508012600C443E40F02E0002400E004463868224689
S3150801261031460023074CA047012007B0F0BD00BF93
S3150801262010000100E1C201086935020859070108CD
S315080126307D3702082D480108F7B5476A0B4B054651
S3150801264038680E469847044638B13A1D0848094B7A
S315080126502146984724EAE07200E0024600230093E7
S3150801266030462946044CA047FEBD00BF1D07010898
S3150801267090510010E5300208651A01082DE9F34169
S31508012680456A0F4B0646286888469847044670B13E
S3150801269069680C4B984748B147686A680A4B3846D7
S315080126A0202198476B680022FA5400E0044600236B
S315080126B02246009340463146044CA047BDE8FC81BA
S315080126C01D070108A1250208A9870408651A01083A
S315080126D0F0B5476A0F4B85B0054638680E469847E8
S315080126E0044670B10223ADF80830BB68F968ADF845
S315080126F00A307B6802AA0393074B984724EAE072DB
S3150801270000E002460023009330462946034CA047C1
S3150801271005B0F0BD1D07010849660208651A0108DA
S315080127202DE9F047436A5C681F68A0B005460E4666
S31508012730002C6BD03A4BDFF814911D934FF000082B
S3150801274019A81DA9374BCDF878809847204603A9C3
S31508012750C8474045824652DB38460EA9C847404518
S3150801276082464CDB9DF83C304BB19DF81230002B6C
S3150801277043D01DA8214642462B4B98473AE01DA84F
S3150801278039462A4B98470028824638DB9DF810308F
S31508012790BBB19DF83E3033B911A91DA8244B984702
S315080127A0002882462BDBBDF87630012B01D0214B60
S315080127B0984720AB13E907004FF0000A84E80700A1
S315080127C01DE01DA81C4FB84730B12046B84768B967
S315080127D011A91DA8164B05E02046B84730B1174B7D
S315080127E011A91DA898470028824608DB20461DA97D
S315080127F0134B984700EAE07A01E04FF0224A19A8FC
S31508012800104B9847BAF1000F18BF0024002322463F
S315080128100093304629460C4CA04720B0BDE8F08706
S3150801282010000100DDBA01087D3702086935020882
S31508012830E944020811550108E5090108CD330208E2
S315080128408536020811BB0108651A01082509010820
S31508012850F0B5114CC3B003460020D4F80071024606
S3150801286002AE0AE054F8045B35B1ED684FEA820E10
S315080128702D0446F80E5001320130B842F2D102A8B1
S315080128809200019200900868044C1946012200231F
S31508012890A047012043B0F0BD1C5700107D46010832
S315080128A030B5124AADF5806D83B0034601ACD2F856
S315080128B0D400002207E0C0690132B2F5807F44F8EE
S315080128C0040F03D028464568002DF4D102A89200CA
S315080128D0019200900868064C194601220023A04778
S315080128E0012003B00DF5806D30BD00BF9051001079
S315080128F07D4601082DE9F041436AADF5447D05465B
S315080129000E4608461968204B98470446002830D0D9
S31508012910037EDFF884800293036B5F683846C047FD
S315080129200130B0F5FF7F03D83846C047431C01E0A4
S3150801293040F2FF133A464FF4007103A8134FB84704
S31508012940216A83A8002206E04969C968090440F892
S31508012950041B013219464B68002BF5D1813202A9B5
S315080129609200009101923068094C29460122A0473C
S3150801297005E0224623463068064C2946A047012031
S315080129800DF5447DBDE8F081E50B0108E573010805
S315080129907D4601082D480108157401082DE9F04105
S315080129A0436A0E46ADF5067D5988184B05463046ED
S315080129B098470446F8B1A269154F06A84FF4007165
S315080129C040F2FF13B84762692369124C1C3292E838
S315080129D003000DF10C080122C8F8003004AB83E8A6
S315080129E003004FF403730193CDF80080306829463C
S315080129F00023A04705E0224623463068064C2946AF
S31508012A00A04701200DF5067DBDE8F081811B01086F
S31508012A10E57301087D4601082D480108F0B504460D
S31508012A20ADF5097D0D46084683AA616A124B98479A
S31508012A30B8B140F2FF1303AE879386960F48104F3D
S31508012A4083A986AA87ABB84700280ADB4FF4007327
S31508012A5001932146009628680A4C01220023A047C3
S31508012A6005E0002221462868074C1346A0470120A5
S31508012A700DF5097DF0BD00BFA91B01081C57001003
S31508012A80611002087D4601082D480108F0B5044683
S31508012A90ADF50D7D0D46084684AA616A194B98471E
S31508012AA0002825D004AB8A9340F2FF138B9316486E
S31508012AB0164F84A98AAA8BABB847002802AE17DB42
S31508012AC084A987A8124B9847879BBDF810223360C3
S31508012AD0859B2868DB6F33F8123073604FF40273F5
S31508012AE0019321460096012200230A4CA04705E0DE
S31508012AF0002221462868084C1346A04701200DF5F7
S31508012B000D7DF0BDD91B01081C570010096E02087E
S31508012B1029EC01087D4601082D480108F0B504464F
S31508012B20ADF50D7D0D46084684AA616A184B98478E
S31508012B30002826D087A884A9164B9847002820D0B4
S31508012B4004AB8A9340F2FF138B93879B8598039373
S31508012B50869B114F1988114B98478BA90346104A32
S31508012B608AA8B84703AE4FF401730193214600962C
S31508012B7028680C4C01220023A04701200DF50D7D84
S31508012B80F0BD002221462868074C1346A047F4E702
S31508012B90091C0108E1EB0108152F010861E7010885
S31508012BA04AE504087D4601082D48010870B5466ABC
S31508012BB086B00023039304460D4670680D4B04A99D
S31508012BC09847002808DB32460B480C4E04A905AB8A
S31508012BD0B04708B1059B039303AB00930423019304
S31508012BE02868214601220023054CA047012006B08A
S31508012BF070BD00BF0DF20108DC54001025710208F2
S31508012C007D4601082DE9F04F654B93B01C68049089
S31508012C100591002C00F0B48007AF384650212246B2
S31508012C20604B9847A8B10026DFF890815E4CB14603
S31508012C30354615B93846C0478146099B3846F618C0
S31508012C400135A04740B1079A09EB06039A4203D119
S31508012C50EFE7064681460546DFF84481534BD8F827
S31508012C600000534F98474FF00C0A0AFB05FA0AF180
S31508012C70240A039001215046B8470446002800F06B
S31508012C808A8051464B4B98474B4BD8F80020D3F8CE
S31508012C900C31D068A66084E808024FF0FF33E36080
S31508012CA093681B6B9847D8F8002020619368D06811
S31508012CB0DB6A984750216061D8F80020394B07A88C
S31508012CC0984700284ED026464FF000080023039A5D
S31508012CD01193137803F00203DBB233B90A98344B24
S31508012CE0012198471190002854D02D4B0DF11C0B4A
S31508012CF01F68324B58469847BB68099A1B6A0146B2
S31508012D00F8689847A8B9DDF8249007460DE011A997
S31508012D100A9A2B4B584698473A462A4B11980A99CC
S31508012D2098470A9B0746C3EB0909B9F1000FEEDC80
S31508012D3000E00027039A137803F00203DBB213B904
S31508012D401198214B9847079B08F10108B361099B24
S31508012D503762A845F36105DA07A8134B98470C367D
S31508012D600028B3D18DE81004059B04991868174DFE
S31508012D7001220023A8472046134B984701240AE05D
S31508012D80059B0094019418680499104D2246234620
S31508012D90A84700E00446204613B0BDE8F08F00BFFF
S31508012DA01839001059650108A9630108C9090108FC
S31508012DB06D2B0208D50901081C5700101561010879
S31508012DC0AD640108C1060108F1DA01087D4601086A
S31508012DD01FB514460D4B01AA9847A8B1039B5A88FB
S31508012DE04FF6FF739A420ED0029ABDF80430D2F814
S31508012DF08420D15C14B141F0010101E021F0010107
S31508012E00D154012000E0002004B010BD091C0108BE
S31508012E102DE9FF479146114B6A4606460F469847E4
S31508012E20C0B1029DDFF838A06B7B95F80C809844F9
S31508012E30AB7B002498440AE06B897A881B1943EA1C
S31508012E400243304603A94A460393D0470134444511
S31508012E50F2DB012004B0BDE8F08700BFA91B010819
S31508012E60D12D01082DE9F743446A236813F10008B7
S31508012E70636818BF4FF00108022B0D461BD0052BBE
S31508012E801FD0012B24D16189134B28469847074641
S31508012E9000B30026DFF8449008E06389284646EA2D
S31508012EA0034301A942460193C84701363B6B9E423B
S31508012EB0F3DB01200EE004F1080128464246074BE0
S31508012EC004E0074B04F1080128464246984701E009
S31508012ED00020FFE7BDE8FE83811B0108112E0108CA
S31508012EE0D12D010870B505460C4600680968084EDB
S31508012EF0B0470346C043C00F00B923682A68D118F2
S31508012F0029600021D1542268D31A236070BD00BFFD
S31508012F10D97301080CB413B504AB044C53F8042B4C
S31508012F200193A047BDE81C4002B07047E52E010891
S31508012F302DE9F3472E4B1B68064698000D4654D4D7
S31508012F4001314BD130462B4B9847054646E0D4F81C
S31508012F500090C9F17F07BD42B8BF2F4631463A46B0
S31508012F6008EB0900D04709EB0703E2180021502BAB
S31508012F7023603E44C7EB0505117105DC1E481F4B4E
S31508012F800A21984700282ED01D4B9847184B1A68D6
S31508012F9052000ED51B68DB030BD41A4B1B68186845
S31508012FA038B142F20103009301212268124B164FF0
S31508012FB0B8470F4B154F1B6813F0804F03D0FA68BB
S31508012FC07B689A4207D0124BF8680B4922689847E2
S31508012FD0F868104B98470023236004E00E4CDFF88D
S31508012FE03CA004F10408002DB1DCBDE8FC8700BF54
S31508012FF09051001015740108203A00103988040808
S31508013000AD560108CC56001065460108002E001081
S315080130107D860108518701081C3A00107586040847
S3150801302010B5ADF5027D0B4600A9809140F2FF115E
S315080130300246819180A881A9084CA04708B9084B86
S3150801304098478199074BC1F5FE710331684681910D
S31508013050984781980DF5027D10BD00BFE52E010840
S3150801306011550108312F01080FB407B504A9044BFE
S3150801307051F8040B01919847BDE80E4004B070471A
S315080130802130010868B161B188420AD08A684B6863
S3150801309002B1536003B19A60836848608B605960D6
S315080130A08160704738B5182105460022044C00F1A5
S315080130B00C00A0471421024605F12400A04738BD9B
S315080130C0C106010810B53839064A03E01C68043000
S315080130D0944204D088420346F8D3002010BD18460E
S315080130E010BD00BF31564F500268074B9A4207D1AF
S315080130F04368013306D18068003018BF0120704744
S3150801310000207047002070473156535070B5044669
S31508013110A1F10C06054D03E02046A84720B9043461
S31508013120B442F9D3002070BD204670BDE9300108CC
S31508013130036B23B1C06B003018BF012070471846D6
S315080131407047F0B507460C4605460FCF91B06E4657
S315080131500FC60FCF0FC60FCF0FC697E80F0086E829
S315080131600F0026460FCE0FC50FCE0FC50FCE0FC5C2
S3150801317096E80F0085E80F006D460FCD0FC40FCDF9
S315080131800FC40FCD0FC495E80F0084E80F0011B0E6
S31508013190F0BD0146436BC06A8A6B896810B58468BD
S315080131A0C068E468D21AA04710BD0000F8B5044605
S315080131B01E4BC06A0D469847E369276A1422534392
S315080131C082690646D0184FF00C0C01690CFB071CE6
S315080131D02F68DCF80410DCF808C00CF1010CC1EB0F
S315080131E00C0CBC451ED9D4F82CE0D358DEF808C01F
S315080131F079188768DEF80C0007FB0131DCF8243002
S3150801320098472B68A0F101014F4247EB01070133AB
S315080132102B60337803F00203DBB223B92046044B53
S31508013220984700E000273846F8BD00BFC9090108DC
S3150801323093310108F7B502AC0023074644F8043D6B
S31508013240044E054D00E0A84738462146B0470028F8
S31508013250F9D1FEBDAD310108AD560108F7B5104BE0
S315080132600446C06A16460D469847027802F00202DD
S31508013270D2B222B10B480C4B984700200EE0E36A04
S31508013280A768616B98680092791A0469D868691801
S3150801329032462B46A047003018BF0120FEBD00BFAD
S315080132A0C909010888E2040869300108034610487B
S315080132B00A46C16D994210B5014604D8046E9C426E
S315080132C001D9283009E0D1F89C100948994208D853
S315080132D0D0F8A010994204D968301946054B984789
S315080132E010BD19460448054B9847002010BD00BF7C
S315080132F0C85000105D320108B6E2040869300108B9
S31508013300002303E0C258013204D104338B42F9D3B6
S315080133100120704700207047F7B5124C124B06463C
S31508013320606D0F4615469847037803F00203DBB232
S315080133306BB1636D00219A6800911469D8683146AA
S315080133402A463B46A047003018BF012008E0394607
S31508013350064B30462A46984730462946044B984735
S31508013360FEBD00BFC8500010C909010875860408CA
S31508013370AD32010873B50546006B019160B1074E80
S315080133800A24286B01A908300422B04718B9013C60
S31508013390F7D1204600E001207CBD00BF19330108A2
S315080133A007B502A9002341F8043D04300422014B64
S315080133B098470EBD193301082DE9FF47184F194BD8
S315080133C00546786D8846164698470024039403787F
S315080133D003F00203DBB28BB91A4619E02B594345B0
S315080133E00AD1D9F854309A68CDF800A01769D86877
S315080133F02919042203ABB847043401E0B946A246A9
S31508013400B442EBD30AE0E958414508BFEA50043310
S31508013410B342F8D328463146034B9847BDE8FF87A0
S31508013420C8500010C9090108AD32010808B5014B99
S31508013430984708BD555E010810B5044B04469847E0
S3150801344020464CF25031024B984710BD555E010893
S315080134502D5D0108D0F8AC3010B504461BB100F15A
S31508013460AC000C4B9847D4F8B0301BB104F1B0004E
S31508013470084B9847D4F8B8301BB104F1B800054B8E
S315080134809847D4F8BC301BB104F1BC00014B9847EE
S3150801349010BD00BF8DBE010838B5094B094C05465C
S315080134A0084611461A68A0470421024605F10C0090
S315080134B0A0470421024605F11000A04738BD00BF08
S315080134C000590010C10601080268124B9A4270B5EC
S315080134D005460C4619D1104B86689847864216D17F
S315080134E08CB16B68013310D1284605F1380150F8C3
S315080134F00C4F6A69094B9847C0EB040EDEF10000D0
S3150801350040EB0E0070BD012070BD002070BD00208B
S3150801351070BD00BF31564F50A530010899340108D6
S3150801352010B581B18C6A8CB1436B243C9C420CD397
S31508013530836B9C4209D220460121054B98470028F6
S3150801354008BF002402E00C4600E00024204610BD16
S31508013550C934010870B50646054C00F128000D4628
S31508013560A04718B906F168002946A04770BD00BFF3
S315080135702135010838B5D0F8AC308B4204460D46E2
S315080135800AD1D0F8B00020B1174B98470023C4F8E8
S31508013590B0300023C4F8AC302B699B000AD520460D
S315080135A02946124B984708B10F4B98472B6923F0C8
S315080135B000532B612A6922F080422A61D4F8A82097
S315080135C00023012AAB6204D00CD3043A022A09D893
S315080135D005E0C4F8A8302046054B984738BD0223B4
S315080135E0C4F8A83038BD00BFA13301085535010814
S315080135F039340108F8B5402204460D462B4B466B73
S315080136000021984704F10800E9B2294B9847002898
S315080136104BD0284BE06A9847037803F00203DBB2E4
S31508013620ABB946B92069244B0C219847064610B90F
S315080136306063A063F8BD22696663B318A363E36A8E
S315080136409968D868CD68A1683346A84704E0A36895
S3150801365022696363D318A363A16B606B0B1A0C3BD6
S315080136605A22236053436422B3FBF2F36360134B7C
S3150801367098472063B0B10C30E063114F114E0BE04F
S315080136806B693B3323F00303ED18E56328460021F4
S31508013690B0470028F4D1281DA16BB8470546002874
S315080136A0F4D101E00120F8BD0120F8BDA98704087D
S315080136B0B9650108C9090108292C02080D31010853
S315080136C0C5300108C93401082DE9FF41114B446B86
S315080136D001934FF0FF3302930393836B0E4F0F4E03
S315080136E00546A3F10C080EE0204601A90C22B847AD
S315080136F020B12846A9690A4B984707E0204605499B
S315080137000C22B04704344445EED3002004B0BDE88A
S31508013710F08100BF3156535019330108B9330108F6
S31508013720F5350108F8B5044600292FD08D6A002D14
S315080137302ED0184A4FF0FF3301F10C0780E80C0030
S3150801374000F10C060FCF0FC697E803006269124B0A
S3150801375086E8030005F1140104F10C009847226973
S315080137600E4BE06013402361294614220C4B04F1E9
S315080137702400984794F8253043F0090384F8253046
S315080137802046084B9847A0600120F8BD0846F8BDB9
S315080137902846F8BD31564F50993401080700008074
S315080137A075860408A53001082DE9F04F1E46002349
S315080137B0136033600446C06B8FB01546002836D0B7
S315080137C068461C4BEA469847002830D0059FA36BEC
S315080137D0DFF870903B3727F003073C37C7EB030840
S315080137E0EA461FE058463946C84798B158466946D9
S315080137F03822114B984768B1E36B2B60E36B38337A
S315080138003360059BE26B3B3323F00303D318E36371
S3150801381001200CE0094BE06B094938229847E36B14
S315080138200433E363D4F83CB0C345DBD300200FB0BF
S31508013830BDE8F08F2537010819330108B9330108A6
S3150801384031564F50013301082DE9F04FDFF8F8B230
S31508013850ADF5006D85B004468846D847D4F8A8303A
S31508013860062B00F20082DFE813F00700FE019A003A
S31508013870B900CC004601CB01B8F1000F40F0FB813D
S31508013880A648216AA64B9847002800F0EE81F2E186
S31508013890A24A9946D2F83C5128E02A69910724D5CB
S315080138A0AE6A16B369693B3121F003019200894476
S315080138B01BD404F1280004F1B00204F1BC03294623
S315080138C0984FB84748B106F11403C4F8B830F368FD
S315080138D0C4F8AC50C4F8B4300BE0E36AC4F8B800D5
S315080138E09945C4F8B40004D286E11D466B68002BDD
S315080138F0D3D1D4F8AC0018B90123C4F8A830B5E17E
S31508013900D4F8B450D4F8BC00D4F8B810864B802D3E
S3150801391028BF80252A4698470646002800F0DE80FB
S31508013920D4F8BC305B19C4F8BC30D4F8B8305B198C
S31508013930C4F8B830D4F8B4305D1BC4F8B450002DBF
S315080139408BD1D4F8AC30D4F8B0701A6912F0040FE0
S3150801395007F1240712D09D6A74486B880C265E43CA
S3150801396001A98022724B98472A4633466F48714D02
S315080139703946A8476D48704B984700E09F62D4F8CE
S31508013980AC301A6942F000521A610023C4F8AC300F
S31508013990C4F8B030C4F8B830C4F8BC305DE7B8F143
S315080139A0000F40F06E815D48616A5D4B98470028BB
S315080139B000F05B8165E1D1621A465368002BFAD1A2
S315080139C0C4F8AC30C4F8B030C4F8B830C4F8BC3068
S315080139D0C4F8B430C4F8C03003230FE0B8F1000FBF
S315080139E040F054814D48616A4D4B9847002800F0D4
S315080139F03C814BE1514B284698470423C4F8A8302B
S31508013A002BE7B8F1000F40F04C814448216A444B3A
S31508013A109847002800F0298143E1404AD2F83C51F1
S31508013A2025E02969880721D5AE6AFEB168693B3068
S31508013A3020F003001B18880018D5E96AB1B9E26EAF
S31508013A40934217D204F1680004F1B00204F1BC03F1
S31508013A502946344FB84768B106F11403C4F8B8309B
S31508013A60F368C4F8AC50C4F8B43003E015466A6884
S31508013A70002AD6D1D4F8AC300BB90523BEE7D4F861
S31508013A80B450D4F8BC00D4F8B810274B802D28BF01
S31508013A9080252A469847064600B3D4F8BC305B19F8
S31508013AA0C4F8BC30D4F8B8305B19C4F8B830D4F8C7
S31508013AB0B4305D1BC4F8B450002D7FF4CEAED4F8F3
S31508013AC0B020D4F8AC302432DA62C4F8AC50C4F869
S31508013AD0B050C4F8B850C4F8BC50BEE6D4F8B0002B
S31508013AE0174B9847C4F8AC60C4F8B060C4F8B8601E
S31508013AF0C4F8BC60B1E6B8F1000F40F0D8800748B9
S31508013B00216A074B9847002800F0AF80CFE0034BA6
S31508013B100C4FD3F83C5104F1280926E090510010C6
S31508013B2009B20108A937010819330108D45600104A
S31508013B30E9BD01080DC20108C9C10108C936010854
S31508013B40A133010821350108AD5601082B699900F1
S31508013B500AD5EB6A43B948462946B847C4F8B000BE
S31508013B6010B1C4F8AC5003E035466E68002EEDD1AD
S31508013B70D4F8AC300BB9062340E7D4F8B0304F4A35
S31508013B801E6B4F4B0DF500600430314698470028EF
S31508013B9032DBDDF80858D4F8B0104A4B38313246D2
S31508013BA005F114009847D4F8AC301A69520712D5B2
S31508013BB09E6A454873880C275F4301A98022434BB7
S31508013BC0984729463B464048414D3246A8473E4814
S31508013BD0404B984700E09D62D4F8AC30D4F8B00069
S31508013BE01A6922F000521A613B4B98470023C4F820
S31508013BF0B030C4F8AC3030E60223C4F8A83034E05B
S31508013C00324B3148DFF8C8A001A980229847334BC7
S31508013C100027D3F83C514FF00C090EE0E96A59B177
S31508013C202B69580706D5AA6A2748538809FB03F35F
S31508013C30D04700E0A962EF6235466E68002EEDD1E5
S31508013C402148244B9847A36D9968254B04F16805CB
S31508013C5001312846984704F128012846214B9847FF
S31508013C60C4F8A860F9E5002000E0012005B00DF5CB
S31508013C70006DBDE8F08FD4F8AC30002B7FF440AE70
S31508013C8006E6164B0021D3F83C2196E604F16805B1
S31508013C9004F1C0012846144B984700283FF4DDADCE
S31508013CA0A8E6D4F8AC30002B7FF4E9AEB5E6D4F833
S31508013CB0AC30002B7FF461AF29E700BF70530010C9
S31508013CC05567020875860408D4560010E9BD01082F
S31508013CD00DC20108C9C10108A1330108905100109C
S31508013CE07533010843310108AD31010808B50121D1
S31508013CF0014B984708BD00BF4938010808B5044873
S31508013D00044B0021984710B10148034B984708BD59
S31508013D10C8500010493801083934010838B5182146
S31508013D2004464FF480723023044D0548A8472060A5
S31508013D3000280CBF4FF07A40002038BD2125020823
S31508013D40905100102DE9F0411D4B90B0044688466C
S31508013D50984700282BD01B4E0023C8F80060C8F8E6
S31508013D600430636A002B22D1A36A03B3256915F0CF
S31508013D7004051BD10B93144F0E9502A80AA90A969E
S31508013D800D96B84706A80DA9B8472B462A460AA98B
S31508013D9000950DA80D4FB8470028BCBF0E950D9686
S31508013DA006A80B4DA84702A8A8470E9B6362636A3B
S31508013DB0044A002088E80C0010B0BDE8F08100BF75
S31508013DC05549010810000100DDBA01085F490108DB
S31508013DD011BB010810B582684368014602B15360F8
S31508013DE003B19A6000238B604B600B69002B0BDAD9
S31508013DF0074B0A6AD3F83C0100E01846436823B129
S31508013E00046A9442F9DC00E00248034B984710BD66
S31508013E1090510010CC5200108530010870B50B780E
S31508013E20102B8EB004466FD14D683A4E099503F5AD
S31508013E30803308930B9300230C93684608A9B0476F
S31508013E4004A80BA9B04723696562002B4ADA324BED
S31508013E509847002846D0FDB12B780F3B042B4BD849
S31508013E60DFE803F00D4A0D0D03002B7C032B06D169
S31508013E702A4B0C950B93236943F004030BE00022AC
S31508013E80274D0BA808A91346A8470028054635DB80
S31508013E90236923F0040323610C9E0EB1F56800E043
S31508013EA03546A16A09B1CB6800E00B469D4207D1A8
S31508013EB0C5B106F1140014312A461A4B984788B140
S31508013EC019481A4B2146984765614DB104F10C0012
S31508013ED006F114012A46164B9847A662E06001E0EE
S31508013EE0E560A562134D04A8A8476846A847204679
S31508013EF0114B9847002509E04FF0224504A80D4CBF
S31508013F00A0476846A04701E04FF0224528460EB073
S31508013F1070BD00BFDDBA010855490108100001004E
S31508013F205949010815860408C85000107535010855
S31508013F309934010811BB0108D53D01082DE9F7435C
S31508013F4004460021C8224E4B4E4F04F128059847D6
S31508013F502846E021B847002800F08F8004F168065A
S31508013F603046F021B847002800F0878000224649EC
S31508013F70C4F8A820A2612046444B9847626D93680D
S31508013F80D068DB6A9847830103F57873626D4FF44D
S31508013F907A770733B3FBF7F323629368D0681B6B11
S31508013FA0984700F5FA735B00013BB3FBF7F76762C5
S31508013FB03046374FB84768B12846B84730B1A26D81
S31508013FC0D4F8983092689B689A4203D228463146BB
S31508013FD0304B984728462E4B984748B928462E4BCA
S31508013FE098472E4B28469847284601212C4B984737
S31508013FF02846274B9847002839D0A06DDFF8B89096
S31508014000284E0C302EE028460121B047E0B101A820
S31508014010C047002818DB05F10C0EBEE80F00DDF8D5
S3150801402004C00CF10C070FC79EE8030005F1240331
S3150801403087E80300CCF8283060461B4B9847019B5C
S315080140401A6942F0C0421A616B693B3323F00303D4
S31508014050ED1801E0DFF8648028460021B047002802
S31508014060D1D1281D216EC84705460028F2D10F482F
S315080140700F4B984720460F4B9847BDE8FE8300BF74
S31508014080A9870408F5350108FD3C01080D5E0108FC
S31508014090313101084331010835320108C9360108B1
S315080140A075330108C9340108D53D0108905100103E
S315080140B0F16C020839340108C53001081D3D0108B3
S315080140C038B50446044B054D984704F12400A84722
S315080140D004F12800A84738BD8DBF01088DBE010827
S315080140E0F0B50C23244E002542E00478182C16D18D
S315080140F04488042C2ED1846A002C2BD0046914F030
S31508014100010F27D024F0005404614478456044F037
S31508014110010444708560456200F1300427E0132CE0
S3150801412018D1046904F0FF14032C13D1477CD0F885
S315080141300CC044880CFB07F71F37B7FBF3F7BC42E3
S3150801414008D103FB04048C4204D8477847F00107D9
S3150801415047700CE003FB0204A14202D20A1A92102C
S315080141607243140444F01504046003FB0204204658
S315080141708842BAD30120F0BDABAAAAAA2DE9F84311
S31508014180064603680C2539E09C69D3F81C9032E091
S315080141902378182B2CD1A06A336823E09969DB6947
S315080141A081421ED898421CD219E0814213D1CA68AD
S315080141B063699A4219D12046143150F80C8F124B73
S315080141C09847804511D1236943F0804323612046EE
S315080141D00E4B98470CE0B1F802C005FB0C11994249
S315080141E0E3D313465A68002AD8D10CB11523237094
S315080141F0638805FB03444C45CAD33B465F68002FD9
S31508014200C2D1BDE8F88300BF99340108D53D01083C
S31508014210486A10B50C4618B1024B984700236362E9
S31508014220012010BDF1DA010838B5144612680D46A9
S3150801423082B1D0F8A4000968074B9847002807DD22
S315080142402B681B182B602368181A2060012038BDBB
S31508014250002038BD012038BD0D87010810B50C4670
S31508014260064B9847206A38B14FF40061044B9847CA
S3150801427018B16062012010BD012010BDAD560108BC
S315080142806D2B02088268436802B1536003B19A60D4
S315080142907047000038B5051F0C460AD049B18D4252
S315080142A007D0044B084698476B68A56063609C6015
S315080142B06C6038BD854201082DE9FF411F460AA8F1
S315080142C0254B8846164698470546002841D0684634
S315080142D02946224B984706F130004FF40061204BDE
S315080142E09847044620B968461E4B9847204630E051
S315080142F000230DF1300C4360836000F1100EC0F805
S315080143000C80BCE80F00AEE80F00DCF80030A662AE
S31508014310CEF80030119B63622FB104F12C003946A7
S315080143203246114B9847203509D0A54207D00F4B85
S3150801433020469847AB686560A3605C60AC600C4832
S315080143400C4B4FF0807198476846064B98470120F9
S31508014350FFE704B0BDE8F081EB930208DDBA010876
S315080143606D2B020811BB01087586040885420108F0
S3150801437090510010995302082DE9F74F9946264B9B
S31508014380DDF838A090469A68914204460D4605D153
S315080143905B68994202D1B8F1000F3AD094F8A86047
S315080143A0002E36D11D4FDFF884B02760032307F1AD
S315080143B01802A360A261236204F188006460E461C3
S315080143C0D84704F19400D84707F1300207F13803BA
S315080143D004F1300012490094124FB8470C9BC4F8F7
S315080143E0A06063620D9BC4F8A450E362C4F80C8014
S315080143F00D4BC4F810A0C4F81490C4F828A0284698
S315080144009847003018BF0120012384F8A90084F8D1
S31508014410A830BDE8FE8F00BF002E0010E8E20408B0
S315080144202CE30408A1FF0208B185010847C0010869
S3150801443030B50B4B1D1D85B01D600021B0222846E5
S31508014440084B98470024084B029500940194284686
S315080144509968064D22462346A847204605B030BD31
S31508014460A03A0010A9870408002E00107943010814
S3150801447038B590F8A8300446A3B10B4B1B781BB985
S31508014480D0F8A400094B984704F18800084DA847BD
S3150801449004F19400A8470023C4F8A03084F8A93091
S315080144A084F8A83038BD00BF5C3E00102D8601088F
S315080144B02DDB010808B5034B1868034B9847002004
S315080144C008BD00BFA03A00107144010808B590F86C
S315080144D0A83013B13030014B984708BDD101030804
S315080144E02DE9F8430446904699468868104F0026F8
S315080144F018E0D0E90623424573EB090104DBD4F839
S31508014500A030B3F5A05F0CD943686B6003B19D6019
S3150801451086604660D4F8A0200369D31AC4F8A0308F
S31508014520B84728468568002DE3D1BDE8F88300BF62
S31508014530F1DA010800000000F8B50D4B0D4D0446EF
S31508014540984709A3D3E90023861841EB03072046B8
S3150801455004F1940132463B46A84704F188012046F6
S3150801456032463B46A847F8BD803C36FEFFFFFFFFB3
S31508014570617A0108E14401082DE9F8430E6ACC691C
S315080145802E4F80460D46914604312022D0F8A400CC
S31508014590B847202849D12B6A3BB1696A29B1D8F8AD
S315080145A0A4003246B847B0423FD1D8F8A400244BFC
S315080145B09847B9F1000F3BD0A10439D4A20702D517
S315080145C008F1880703E0E30732D408F1940706F1F6
S315080145D0600948464FF400611A4B9847044600287B
S315080145E029D0D8F8A0304B44C8F8A030C0F81090AC
S315080145F0154BDFF85C8098473C22C4E9060104F1B3
S3150801460020002946C04746B16B6A33B104F1600000
S315080146106064696A3246C04702E000232364636422
S3150801462038462146094B984702E00020BDE8F88341
S315080146300120BDE8F8830120BDE8F8837D860108DD
S3150801464051870108292C0208617A01089542010857
S315080146507586040808B50122014B984708BD00BFB5
S315080146607945010813B51446009330302346049A58
S31508014670014CA0471CBD00BFE10103082DE9F0412B
S31508014680CF6992B00C46F907DDF86080199E24D4EB
S3150801469047F00107E76107F4005712B147F40047ED
S315080146A001E047F480470BB947F00107002A00F1FA
S315080146B0300508BF164608BF904602A82946084B8A
S315080146C09847211D02A83346CDF800803A46054C85
S315080146D0A047284602A9044B984712B0BDE8F081C5
S315080146E035FE0208C9FE0208D5FF02082DE9F04188
S315080146F0036A446AA3F1140C231D8846054693E808
S3150801470003008EB08DE8030027460FCF02AE0FC611
S315080147103B681249336004F1140E0027624673465A
S31508014720079740460E4EB04784460FCC0DF1240E2E
S31508014730AEE80F0023680B4CCEF8003008AB012613
S3150801474000931823019340460896294662463B463C
S31508014750A04730460EB0BDE8F08100BF92000200C6
S31508014760B94201087D4601082DE9F041036A446A08
S31508014770A3F1140C04F10C038846054693E80300DB
S315080147808EB08DE8030027460FCF02AE0FC63B68F1
S315080147901149336004F1140E0027624673460797E0
S315080147A040460E4EB04784460FCC0DF1240EAEE8B6
S315080147B00F0023680A4CCEF8003008AB0126009397
S315080147C01823019340460896294662463B46A04768
S315080147D030460EB0BDE8F08191000200B9420108E9
S315080147E07D460108F0B5476A0E4B89B0044607F1C4
S315080147F00C000D469847003018BF012002900FCFD4
S3150801480003AE0FC63B68336002AB009318230193CE
S315080148102846214601220023034CA047012009B05E
S31508014820F0BD00BFEB9302087D46010813B50024CD
S3150801483000940194014CA0471CBD00BF7D460108A8
S31508014840F8B5CB695A0404460D4668D49E0723D5A4
S31508014850D0F894601AE0716B6A69914215D1318F6B
S315080148606A8B914211D104F1940031462E4B984737
S315080148702E4B984702460B46C6E90623F368D80726
S315080148804DD443F00103F36003E01E467368002B21
S31508014890E1D104F118021FE0D0F8886018E06969CF
S315080148A0726B914213D1298B728F91420FD104F108
S315080148B0880031461C4B98471C4B98470022C6E98D
S315080148C006011B4B06F120012046984727E01E46A4
S315080148D07368002BE3D1224602F1180017E09668A7
S315080148E01368002109E051681B682846984729463C
S315080148F002460023204610E00833B14211D083B1A5
S31508014900D3F804E06F690131BE45F5D1EBE7824280
S31508014910E5D10022204629461346064CA047012028
S31508014920F8BD0C32F3E700BF95420108617A010828
S31508014930794501082D48010838B505460C46034B4B
S31508014940984728462146024B984738BDAD56010877
S3150801495041480108002070474FF04A4070474FF020
S315080149604A40704708B50021014B984708BD00BF6A
S315080149703D53010813B50223002100930A460B464D
S31508014980014CA0471CBD00BFBD52010837B5022323
S315080149900021044600930A460B46034DA8472046C4
S315080149A0024B98473EBD00BFBD520108FF500108A2
S315080149B0F8B5114E114D3368114C1868A8470120F6
S315080149C0104B98472F4633680B4D5868B84728B996
S315080149D0013C03D001200B4B9847F4E72B68186874
S315080149E0064B9847074B0446012098472B68586899
S315080149F0054B9847E0B2F8BD583B00108D490108B0
S31508014A0041420F006156010865490108F8B5164B80
S31508014A101B680546186815B1144B984701E0144BF5
S31508014A2098470120134B144C0F4F104E98473B687B
S31508014A305868B04760B9013C0AD001200D4B984728
S31508014A40F5E7094B1B681868084B984710B9F8BD74
S31508014A50002DF6D10120074B9847034B1B68586870
S31508014A60034B98470120F8BD583B00108D490108B2
S31508014A70654901086156010841420F00F8B5134C12
S31508014A80636883B12368124F1868124E124DB847EE
S31508014A900120B04723685868B84720B9013D02D0BC
S31508014AA00120B047F6E7094C23681868084B984770
S31508014AB058B12368094D1868A8470120054B98473E
S31508014AC023685868A84701206060F8BD583B001064
S31508014AD08D4901086156010841420F0065490108DF
S31508014AE070B5124D124C2B68124E1868124B984726
S31508014AF00120124B98472B685868B04768B9013CA2
S31508014B000BD001200D4B9847F5E701200B4B984731
S31508014B10064B00225A60012070BD044B1B681868B9
S31508014B20044B98470028F7D0EFE700BF583B001021
S31508014B3041420F008D49010865490108615601087E
S31508014B40F8B50C46164608B1084B9847084F08258C
S31508014B50F009B8477600013DF6B2F9D1054B9847F9
S31508014B6005460CB1044B98472846F8BD7D4A01080D
S31508014B700D4A0108B1490108E14A01082DE9F04148
S31508014B80DFF8388004460F46082600256D00EDB289
S31508014B90C04708B145F00105013EF7D1D4F101003E
S31508014BA038BF0020034B98470FB1034B9847284657
S31508014BB0BDE8F0810D4A0108E14A0108B149010839
S31508014BC038B5064C064D2060002300686360A84787
S31508014BD023685868A847012038BD00BF583B001014
S31508014BE0754901082DE9F74F9A460E9B0C9F00253A
S31508014BF01D600D9B14461D60374B8B469847002C4C
S31508014C002FD0364B364E1B681A7B5200D2B2012082
S31508014C102946B04770B12E4614E000201BF808203B
S31508014C20019301469847019B08B90135EDB208F190
S31508014C30010804E00546804604F1FF393346C845B4
S31508014C404E46EAD3D7F1010138BF00211BF80620E9
S31508014C50234B0020984708B90135EDB20D9B1D601D
S31508014C6001E0254626466FB31C4B1B681A7B1C4B75
S31508014C70520042F00102D2B201200021984750B1F8
S31508014C804FF0000811E001200021C8470AF8080082
S31508014C9008F1010804E0DFF84C90804607F1FF3B74
S31508014CA0D8455E46EFD35FFA8BF80E4B00200121FB
S31508014CB0984708F101080E9B0AF806005FFA88F082
S31508014CC0186000E0384628183C19031B584240EB87
S31508014CD00300BDE8FE8F00BFC14B0108583B001019
S31508014CE0414B01087D4B01080FB430B5C3B046AB43
S31508014CF0FF2153F8042B0A4C419301A8A047094CFC
S31508014D0005460220A047022001A92A46064B9847D4
S31508014D100220A04743B0BDE8304004B0704700BF49
S31508014D20D9730108618F01084992010873B50123F6
S31508014D3000220093144E019204460D4602204FF4B8
S31508014D40E1310823B047114E1DB111482946B04734
S31508014D5001E01048B0471048E16BB0470F48A16B16
S31508014D60B0470F48616BB04704F140010D48B047A1
S31508014D70064E0025294654F8042B0B480135B04741
S31508014D800D2DF7D17CBD00BFD98C0108E94C01086E
S31508014D9034E3040848E3040851E3040861E304081A
S31508014DA071E3040881E3040891E3040808B5024B9A
S31508014DB09847024B984708BD2D4D0108F95401083B
S31508014DC013B5074B0446002168469847204600213B
S31508014DD0044B9847044B98476846044B98471CBDB3
S31508014DE0C10D08082D4D0108F9540108CD0D080813
S31508014DF038B500F00F02104B53F82230DBB1010928
S31508014E00890201F1804101F50031012409690B4D3F
S31508014E1021FA02F111F0010104FA02F403D1ED6855
S31508014E202C4203D138BDAD682C4204D0024C04EBA8
S31508014E308202126C984738BD603B0010003C014065
S31508014E402DE9F04707462A4C2A4E0120A0470220A1
S31508014E50A04756F82750002D43D0BA100232264BE8
S31508014E6006F1800404EB471453F822A0234B20468D
S31508014E7098474FF00109B6F8803209FA07F818EA97
S31508014E80030F0AD01E4B9847D6F88452421941F1AE
S31508014E90000320461B49884723E007F003039B00CC
S31508014EA02AFA03FA184B996818EA01010AF00F0A57
S31508014EB010D0DB6818EA030F0BD04FEA8A2303F1F7
S31508014EC0804303F50033196921FA07F101F001015D
S31508014ED000E04946074B47EA0A1003EB87073A6C95
S31508014EE0A8470220094CA0470120A047BDE8F08742
S31508014EF08D5A0108603B001000380140555E0108D3
S31508014F00510E0808855C0108003C0140A15A0108B8
S31508014F1070B5094B094E5C6904F47C445C611B68F5
S31508014F201C40A40A0A25E30701D52846B0470135DE
S31508014F306408F8D170BD00BF003C0140414E01082C
S31508014F4070B5094B094E5C6904F478745C611B6899
S31508014F501C4064090525E20701D52846B0470135F5
S31508014F606408F8D170BD00BF003C0140414E0108FC
S31508014F7008B5034B10225A610420024B984708BD15
S31508014F80003C0140414E010808B5034B08225A610D
S31508014F900320024B984708BD003C0140414E0108D9
S31508014FA008B5034B04225A610220024B984708BDF3
S31508014FB0003C0140414E010808B5034B02225A61E3
S31508014FC00120024B984708BD003C0140414E0108AB
S31508014FD008B5034B01225A610020024B984708BDC8
S31508014FE0003C0140414E01082DE9F04F0409A40295
S31508014FF000F00F0B4FF0010904F180440BFA09FA8E
S315080150004FF00308022A85B01E4604F5003409FA52
S315080150100BF508FA0AF805D04A450CBF4FF0020904
S315080150204FF000090BF00707BF00C6F3031202FA97
S3150801503007F209FA0AF9019201FA0AFA02A8002105
S31508015040174B98472168019A6FEA0803194041EA04
S315080150500A012160E168194049EA0101E160A16894
S315080150604FEADB0B0B4043EA08030BF1080BA3607D
S3150801507054F82B300F2101FA07F723EA07073A43B9
S3150801508044F82B206368F1074CBF1D4323EA050545
S31508015090656002A8034B984705B0BDE8F08F00BFCD
S315080150A0C10D0808CD0D080870B50E4E0E4D002429
S315080150B006EB44100134A847102CF9D10B4B0C4CC4
S315080150C000221A600620A0470720A0470820A0470B
S315080150D00920A0470A20A0471720A0472820A04753
S315080150E0012070BDE03B0010555E0108003C0140FF
S315080150F0518501083F2894BF0320002070473F28A7
S315080151000DD803099B0203F1804303F5003300F030
S315080151100F001B6923FA00F000F001007047002018
S31508015120704700002DE9F04F85B000F00F0700F039
S31508015130030901924FEA8909BA081E464FF00F0A78
S315080151400309009204468B460AFA09FA02A803FAE9
S3150801515009F90021434B9847009A434B4FF0010840
S3150801516008FA07F50232BBF1000F60D053F8221096
S315080151700AEA010149450BD03C4909680D4265D146
S3150801518053F8221021EA0A0A4AEA090143F82210C9
S31508015190DFF8E490364B09F1800808EB47184046DA
S315080151A098470E9B2BB1B9F88032C8F80C402B43AF
S315080151B003E0B9F8803223EA0503A9F8803249F8F1
S315080151C027B0019B09EB8709022EC9F84030274B06
S315080151D003D0042E01D0032E02D19A682A4302E095
S315080151E09A6822EA0502012E9A60204B03D0052E01
S315080151F001D0032E02D1DA682A4302E0DA6822EAEC
S315080152000502DA605D611A68042E45EA02021A602F
S3150801521004D12046174B984730B920E0052E1ED1F8
S315080152202046144B9847D0B9104B1D6117E053F827
S3150801523022300AEA030ACA450AD10C4B1A6822EA3D
S3150801524005051D600C4B43F827B001E04FF0000837
S3150801525002A80A4B9847404605B0BDE8F08F4FF0C3
S315080152600108F5E7C10D080800380140003C014076
S31508015270555E0108FF500108603B0010CD0D080876
S315080152803F282DE9F34104460E46154698460ED8A1
S3150801529000219DF82420074F0B46B8470096204663
S315080152A0294642469DF82030034CA04700E00020DD
S315080152B0BDE8FC81E94F01082551010813B50093A2
S315080152C09DF81030024C01930023A0471CBD00BF76
S315080152D0815201083F2837B504460D4614D803F014
S315080152E00F01012904D000290CBF1146022100E053
S315080152F0032120462A46054DA8470021204600914C
S315080153000A460B46024CA0473EBD00BFE94F0108BD
S31508015310255101083F280FD803099B0200F00F0009
S31508015320012203F1804302FA00F003F5003380B24B
S3150801533009B1188370475883704700003F2837B56D
S3150801534004460ED8074B084D9847002220461346B7
S315080153500121A8470021204600910A460B46034C25
S31508015360A0473EBD15530108E94F0108255101081B
S315080153703F28F7B50E461ED8070900F00F050F4B53
S3150801538068460021012498470D4B07FA04F7DF19EF
S3150801539004FA05F5B7F888321EB12B4206D11D432A
S315080153A001E023EA0505A7F8885200E000246846CB
S315080153B0044B984700E000242046FEBDC10D0808AD
S315080153C0603B0010CD0D0808034BD3F884024FF457
S315080153D07A73B0FBF3F07047603B00104FF0FF3271
S315080153E012184FF0FF3370B543EB010342F20E7406
S315080153F00025944275EB030606D3044B9847044BE4
S31508015400C3F88402012070BD002070BD295501082A
S31508015410603B0010F8B51E4F1E4B1F4D002414208B
S31508015420002198470126A7F88842A7F88A42A7F8D3
S315080154308C42A7F88E42803707EB4410002286611A
S3150801544016490134A847102CF6D1154B154D1649A6
S3150801545000241C6022460620A84722460720134935
S31508015460A847224608201249A84722460920114979
S31508015470A84722460A201049A847224617200F495D
S31508015480A84728200E492246A8470120F8BD00BF93
S31508015490603B0010DD5301080D5E0108F14D01085E
S315080154A0003C01401D850108D14F0108B94F01088B
S315080154B0A14F0108894F0108714F0108414F0108A1
S315080154C0114F010840207047002303228B4204D064
S315080154D0402B02D0C2540133F8E7704707207047C2
S315080154E03E20704708B5024B9847012008BD00BF0A
