S02B0000633A5C4D6963726F4672616D65776F726B504B5F76345F335C4275696C644F75747075745C544855D3
S315080100000CE000201D0001082C0001082C00010845
S315080100102C0001082C0001082C000108DFF808D083
S3150801002000F06AF808F0D4BFF8FD0120FEE700BF2A
S3150801003072B62C4BD3F8882042F47002C3F8882094
S31508010040294A012151605A6922F402725A61D3F888
S31508010050FC2042F4FE62C3F8FC20244B1A680A43CA
S315080100601A601A461168214B8907FBD500229A6046
S315080100701A6822F0A0621A601A6842F480321A607D
S315080100801A689003FCD5184B1B68DBB2112B184B69
S315080100900CBF40F2056240F205721A60134B154A0D
S315080100A05A601A6842F080721A601A4611680F4B34
S315080100B08901FBD549F202429A604FF480121A630C
S315080100C000225A639A634FF080521A644FF48042B1
S315080100D05A641A6822F001021A60A3F580330122D4
S315080100E01A60704700ED00E0002004E00038024085
S315080100F0003C02400C54400708B5FFF799FF024B34
S315080101009847024B984708BD9D0101084D01010812
S3150801011008B5FFF78DFF014B984708BD9D010108FA
S31508010120814210B511D002F0030322F0030204E064
S3150801013050F8044B41F8044B043A002AF8D102E07E
S31508010140845C8C5401329A42FAD110BD08B50B4829
S315080101500B490C4AFFF7E4FF0B490C4A0C48FFF719
S31508010160DFFF0C4B0C4A23F00303002102E042F89F
S31508010170041B043B002BFAD108BD00BFA0D2080816
S31508010180002E001000000000002E0010200C0000B8
S31508010190A0D20808C44E0000203A0010034A136B87
S315080101A06FEA53236FEA432313637047003802400B
S315080101B007B5002301933223ADF8043001238DF8E6
S315080101C007300198024B98470248034B98470EBDE2
S315080101D065050108C0790508058F010830B5094C80
S315080101E0094B85B005462046984700238DE8180037
S315080101F00290042128460322044CA047012005B099
S3150801020030BD00BFCB790508F58A010845150108F7
S3150801021070B50846194B11461646984700282CDB37
S3150801022033689869164B98470546002820D03368E5
S315080102305A6951694268914218D0124C1248A0472E
S315080102401248A0471248A0471048A0470F48A047A0
S3150801025032681048536991695A696B68A0470B4817
S31508010260A0470948A0474FF0164070BD8268DA6179
S3150801027009483168094B9847002070BD89730208FF
S31508010280292F020809310108017A05084B7A050860
S31508010290957A0508DF7A0508DC630010ED4E020839
S315080102A02DE9F04186B002AB06460C461546009389
S315080102B00A4605A800232949884708B3059AFAB1C9
S315080102C09368D0689B689847037803F00203DBB20A
S315080102D0B3B92D1B033525F0030528460C21204B00
S315080102E098470446002832D0059B9A6800950190E4
S315080102F0D168D868DDE90223884700282AD065191C
S3150801030021462A46174B1848DFF86C80174F98473D
S31508010310174B291B204600229847164B186004E004
S31508010320636E0333E41824F0030404F17C039D424D
S3150801033009D92046C04738B13046214605AAB847EB
S315080103400028EDDA00E0002006B0BDE8F0814FF0A4
S315080103507A40F9E74FF07740F6E700BF39530108CD
S315080103607980020809310108107B05081102010884
S31508010370D1060108C06500105545020882B02DE96D
S31508010380FF41169D0AA981E80C0000230446029341
S3150801039055B97C2001212D4B9847029000284CD055
S315080103A029467C222A4B98472A4EDFF8C8800AA894
S315080103B002A97C22B04700283AD0029F3846C04796
S315080103C0002835D07F6E033727F003074DB9384625
S315080103D00C21214B9847019018B902981F4B984751
S315080103E02BE06FF07B0101220AA81D4B98470AA84A
S315080103F001A93A46B047D8B1019F1A4B38469847E2
S3150801040008B9F5B90AE0184B1848984720463946FD
S3150801041003AA174B9847002804DA8DB901980F4BA0
S31508010420984706E0039B1A6942F008021A61BEE77B
S3150801043035B90298094B984702E04FF07A4000E037
S31508010440002004B0BDE8F04102B07047BD7F020844
S31508010450B92705083158010879800208552D02087F
S315080104604959010855450208093101082F7B050834
S3150801047011020108ED440208F0B5054699B028486D
S31508010480284EB04728462849284A294B9847002824
S3150801049004463CDB27480CACB04720465021264B86
S315080104A0984710B92548B0471FE0254E169A936814
S315080104B0D0689B6898470378C3F340030A930DF104
S315080104C0380EBEE80F006F460FC7BEE80F000FC70C
S315080104D09EE8030087E80300284694E80C00B04725
S315080104E02046184B98470028E0D10E4B16489847E6
S315080104F01648174B98470028044608DB1548164B3B
S3150801050098471248154B98470028044604DA2146AD
S31508010510044B1348984700E00024204619B0F0BD63
S315080105204A7B0508093101089044060854D0080891
S31508010530A1020108577B050839590108787B050886
S315080105407D0301082D570108AC7B0508DC63001003
S31508010550E1640208785D00100D4501081DB2020824
S31508010560B97B05082DE9FF47DFF85C813D4CDFF8CB
S315080105705C91039087B2C0F30745060EC047002376
S315080105800421032238480093A047C8473748A047A3
S31508010590374B1F809D70DE70364B9847002820DB4D
S315080105A03548A047354B1DB11A6842F000421A601A
S315080105B03248334B9847002813DB3248A047324B61
S315080105C098472B4801230371304B9847002808DBCD
S315080105D02F48A04729482F4B00213A4698472E48CD
S315080105E0A047264B1A6812F0005214D1196821F453
S315080105F040611960196841F400611960274B1B684D
S31508010600186828B10123009309211346244DA847E8
S315080106100EB1244B9847194B1A68910020D59D684D
S31508010620EA071BD505F00505A5F105035D4245EB6E
S31508010630030500201C4B98471C481D4B98471D4B2A
S3150801064098470B4B4FF0000A83F804A01A4B9847BA
S315080106501A4B984750461A4B98478FE7194B9847B4
S31508010660BDE8FF8709310108C77B0508E97B05084D
S31508010670203A0010B97C0208F77B0508505E001085
S31508010680C5020208057C0508610A01087904010802
S31508010690197C05089DBF0208227C05088C63001099
S315080106A0354C01081D0A0108BDD00808785D0010FF
S315080106B0FD390108C1AC0208258E0108F98C01082B
S315080106C0C9D0080851720108CD390208412D02081E
S315080106D010B5074B08E010F8014B84EA126401399A
S315080106E053F8244084EA02220029F4DC104610BD9E
S315080106F02C7C05087FB501460A4B684698470028B1
S315080107000DDB039BDB7B18225A43074BD05800F4B9
S31508010710C020A0F5C023584240EB030000E00020AA
S3150801072007B000BDF54202082090050830B50B4B0D
S31508010730D3F8B0410A4B87B005468DE8180003A8DF
S31508010740084B69462A4698470028A3BF607C04F1EE
S31508010750140300FB0530002007B030BD505E0010C1
S3150801076010000100F91502082DE9F043064685B087
S315080107700C46174600283DD0057804A841F4803375
S3150801078040F80C3D1146043008221D4B9847A542F6
S3150801079027D0192C05D1102D2DD17368002B2AD1FC
S315080107A01FE0102C04D1029828BB192D24D118E07A
S315080107B01823144A03FB05F19046515811F4003FDA
S315080107C0994601D1104B984709FB05835B79042BA0
S315080107D011D10C4B182202FB04346379032B0AD876
S315080107E02C463046394600F8044B0822044B9847F4
S315080107F0012001E000E0002005B0BDE8F08300BF5C
S315080108008526050820900508657201082DE9F0433B
S3150801081089B004460D4691461F46DDF840800028FA
S315080108207AD00E68002E73D0002A73D006F1B00371
S315080108300B6030463A4B0021B022002F08BF2746ED
S3150801084098473760237873606378B3606388F36089
S31508010850B8F1000F02D0D8F8003006E002A8214608
S31508010860304B9847002802DB039BC6F8983073681B
S31508010870013B192B50D8DFE803F00D0D0D0D0D0DB9
S315080108800D0D0D0D0D0D0D0D142C36363A2C4F4F41
S315080108904F4F0D4406F11000211D0822224B98479F
S315080108A03AE06468C6F894407CB120461F4B9847E5
S315080108B00346C6F89000224606F110007F2B28BF92
S315080108C07F2380211A4CA04726E0C6F8904034744D
S315080108D022E0CDF8008009F1FF326068294600233D
S315080108E0FFF794FF19E06368C6F8983014E0E368E7
S315080108F0C6F89C30E388C6F8A030A368C6F8A430C9
S315080109000AE06368C6F8A830A368C6F8AC3003E005
S31508010910304602E0104600E0012009B0BDE8F08348
S31508010920B9270508F542020885260508F58A01084A
S31508010930C58A010838B505460C4618B10378142B43
S3150801094008BF456825602DB12B78102B36D16B6809
S31508010950002B33D10123002023716071A37138BDA7
S31508010960002323712A78102A03D16B685B78C3F3B5
S315080109700013A268637102F06001202901D04029A1
S3150801098001D1012313E002F01F02102A12D8012116
S3150801099001FA02F00D4A024062B13BB90C4BE2681A
S315080109A09B6BD21A534243EB020300E00B46A37139
S315080109B0002038BD0123A371002038BD04F10800C9
S315080109C02946044B98470028CADA38BD02010100B6
S315080109D028600010F542020808B58368C0689B685C
S315080109E0984708BD08B50A46014B0021984708BD36
S315080109F0B92705080378102B0BD1406860B1037835
S31508010A00122B08D1437813F0100F14BF00200120D0
S31508010A1070470020704700207047000038B50A4922
S31508010A200A4B0B4C0B4D40F2015098470A480B4BA9
S31508010A3098472368980005D42368990302D4044883
S31508010A40A847F6E738BD00BF2C8005088983010849
S31508010A50505E0010E92502082E80050809310108B3
S31508010A602DE9F0431E4B1F4E1F4C85B098471AA31C
S31508010A70D3E9002310EB020841EB03090023029393
S31508010A8037462368186840B142F2010308220093E9
S31508010A9000210DEB0203154DA8473368002B14DB23
S31508010AA0134B984758B910E0124806E00C4B984783
S31508010AB0804579EB0103E4DA0F48104B9847104B50
S31508010AC00848984705B0BDE8F0830E4B0548984796
S31508010AD03B685B00EAD5E7E780F0FA020000000010
S31508010AE019820108505E00108C630010354C01080C
S31508010AF0617201084E800508608005080931010800
S31508010B0021260208E92502081FB5074B0290009322
S31508010B10064B074A1B68074C0193074B00681B687D
S31508010B20A047002004B010BDE0800508D88005085C
S31508010B30E880050849490108DC80050870B5154DA6
S31508010B40154C164B164E23608CB0B0212846B0477B
S31508010B5004212068B047134B59689B68994208BF1E
S31508010B60114A23680ABF12681D601A6020680F4B74
S31508010B70984700280CDB0E4B6846502198470D4BC9
S31508010B8010B10A9A1A6000E018600B4B98470020CA
S31508010B900CB070BDFC6400108C630010B0650010C9
S31508010BA0E50901080C2E0010D03B0010090B0108BD
S31508010BB039590108283A0010DF65010808B5034BC1
S31508010BC01B681868024B9847002008BD8C63001003
S31508010BD0414A0108006808B53030014B984708BDFD
S31508010BE07156030808B50068014B984708BD00BF50
S31508010BF0094B0108064BD3F8D40003E0C2698A42BF
S31508010C0004D018464368002BF8D11846704700BF30
S31508010C10505E00100C4A10B5D2F8583103E09C69B1
S31508010C2084420ED00B4659680029F8D1D2F86431AE
S31508010C3003E09969814204D013465A68002AF8D11B
S31508010C401346184610BD00BF505E0010F8B5164889
S31508010C50164E0C461746B04705461548B0472D1897
S31508010C60681C800038600121124B98472060C0B18A
S31508010C700346114943F8045BD1F8582103E0926908
S31508010C8043F8042B024650680028F8D1D1F86421AC
S31508010C9003E0926943F8042B024650680028F8D10C
S31508010CA0F8BD4FF07A40F8BDA85F00101914020884
S31508010CB0B45F001079800208505E00102DE9F843F0
S31508010CC008469946254B14469847064600283DD0BE
S31508010CD0DFF88C800025D6F8503100271EE0012D5B
S31508010CE01AD12268D3F828C03901083151180A1DCA
S31508010CF0C1F804C0D3F81CC0996BC1EB0C01516053
S31508010D0029B1D6F858C1634501D001395160D96C6A
S31508010D105B6AC969D3609160013703465868002840
S31508010D20DDD16DB938010C30C9F800004FF4006106
S31508010D30C047206070B1F36907604360336A836016
S31508010D400135022DC7D10020BDE8F8834FF02140B7
S31508010D50BDE8F8834FF07A40BDE8F883150C010821
S31508010D607980020830B51B4B02461868546A40F070
S31508010D7080401860D36913F0020F85B016D114B1FB
S31508010D80646804F001040023124802930068124DB6
S31508010D9010F4006018BF0420039002A800900820F0
S31508010DA00190086811460122A84703E014B1646856
S31508010DB004F00104074B1A6812F4406F07D11A6848
S31508010DC014B142F0004201E022F000421A6001200B
S31508010DD005B030BD505E00104D4C01082DE9F04FAD
S31508010DE0C3698DB013F002088146069140F08F80E1
S31508010DF0CDF81480C24644460790474B98470546A6
S31508010E0060B9069ADDF81C90009001901068434C71
S31508010E10494601222B46A047284679E0B8F1010F39
S31508010E2013D10C2303FB0AF03D4B9847044660B9DE
S31508010E30069ADDF81C90009001901068374D4946D6
S31508010E4042462346A847204662E0364B284698473D
S31508010E50836900260A93B346A94639E0C56904960B
S31508010E60AD1900212A6903900B928C4627E0B8F147
S31508010E70000F02D10AF1010A1EE0059AD5F814E01D
S31508010E800C2303FB02F70EEB0106E3190893D5E9D8
S31508010E9000237068D5F80CE0E0FB0E23B368E25135
S31508010EA001331B1A6A6908980EFB03F34360535C06
S31508010EB08360059B013305930CF1010C0C31DDF8B8
S31508010EC02CE0F445D3D1049E03980BF1010B183697
S31508010ED00A9A9345C2D14846134B984705460028B6
S31508010EE0B3D108F10108B8F1020F86D10C2303FB2F
S31508010EF00AF30193DDF81C90069B0094186849468D
S31508010F002B460122054DA8472046084B9847012044
S31508010F100DB0BDE8F08F00BF195401084D4C01080A
S31508010F2099800208D909010831540108852D02085A
S31508010F302DE9FF41324F334E3868DDF828801D46CA
S31508010F401446B04702AB009303AB22462E490193E0
S31508010F502B4688473868B047029AC369182101FBAE
S31508010F600232039B52690C214B43B8F1030F37D860
S31508010F70DFE808F03802111BD358244A934231D0CE
S31508010F8022D8A2F5015293422CD01AD9204A93426B
S31508010F9028D0303222E0D258D3B2502B22D01D4B62
S31508010FA013401C4A934221D11CE0D358174A934255
S31508010FB018D009D8A2F50152934213D0164A934282
S31508010FC010D044F2400209E0144A93420AD001D8EB
S31508010FD0403A03E0124A934204D00E4A934201D0A2
S31508010FE0002000E0012004B0BDE8F0810D4B5868EF
S31508010FF00D4B9847A0F10102504240EB0200F2E77F
S31508011000283A0010D90901085155010890400040B5
S31508011010304000403040014060400040E040004020
S31508011020F04000400C2E0010A95C01082DE9F04F94
S31508011030964E974D8DB093460022099007930491D9
S31508011040059230680C46A8470AAB00930BAB01938F
S315080110509049DDE904238847002800F0D6803068E6
S315080110608D4CA8470A9AC369CDF818B0182101FB17
S315080110700231D1E90023DDE90467B61A67EB0307F4
S315080110808246CA68304639460023A0474FF0010810
S31508011090079E14464746B1E0DAF81C20DFF8F8C186
S315080110A0182505FB0325049BD5F80C801846D5E9B8
S315080110B000230021801A61EB030142460023E04721
S315080110C0C4EB08048146DFF8C48189E0E9680B9B13
S315080110D06A6908910C2101FB03229268914507D997
S315080110E02A69013393420B9302D36C4B98477BE0F1
S315080110F0169A09980092DFF8C8C1DDE90423E0478A
S31508011100002800F0E080DDF818C0A44538BF644621
S31508011110DDF858C0BCF1030F4DD8DFE80CF0020228
S3150801112036439AF8003003F00203DBB233B1304696
S3150801113004995B4B2246984701273DE0169F3FB924
S3150801114058460121574B98470646002800F09D80CE
S31508011150D8F800309A688DE85000D168D868DDE97A
S31508011160042388471699074629BBDDF81CC04E4B50
S31508011170DCF80020304621469847DDF81CC04B4B69
S31508011180CCF800003046984715E0D8F800309A6840
S315080111908DE85000002102911169D868DDE9042320
S315080111A0884707E0D8F800309A68D868516ADDE9B7
S315080111B0042388470746BFB1DDF818C0C4EB0C0CF9
S315080111C0BCF1000FCDF818C00EDDDDE904231219B4
S315080111D043F10003CDE904233619089C09F10109F5
S315080111E0AB689945FFF472AF069D0024A5420B949E
S315080111F068DD002F66D00A9B01330A930A9BDAF849
S3150801120018209342FFF448AF5CE0294BDDE90467F7
S315080112109969D8690A46002396429F41084409D329
S31508011220DDE90467024696429F4103D20BEB0403AC
S3150801123083420AD901910290CDF800B01D481E4992
S31508011240DDE90423884700203DE0DDF858C0BCF1FC
S31508011250020F0CD0BCF1030F0ED0BCF1010F31D136
S3150801126007980F4B21465A46984716982BE0204671
S3150801127007990B4B5A4606E0BBF1000F22D00F4BDC
S315080112802046FF215A4698471CE01CE0283A0010E0
S31508011290D9090108515501088972050865720108BD
S315080112A085260508BD7F0208D1060108552D0208C5
S315080112B00C2E00106F80050809310108B9270508A9
S315080112C0310F010801200DB0BDE8F08F2DE9F0437B
S315080112D0134A436A814610685D68ADF5806D83B02F
S315080112E08846B8B10124B5F5806F28BF4FF48065EB
S315080112F002AE00942A4608460A4F19683346B8478B
S315080113000195D8F800000096494622460023064D65
S31508011310A847204603B00DF5806DBDE8F08300BFF0
S31508011320283A00102D1001084D4C01080B4B426A52
S3150801133073B51C6805460E4674B10221009102F187
S315080113400803074C06CA3046A047044629463068B2
S31508011350044D22460023A84720467CBD283A0010A2
S315080113602D100108FD4D01082DE9FF41436A0D4F76
S315080113704FF0000803AECDF8008004460D46084636
S3150801138093E806003346B847042301932868009674
S31508011390214601224346044CA047012004B0BDE87A
S315080113A0F08100BF2D1001084D4C01080B4A436A14
S315080113B073B5146805460E4674B1032200920846B1
S315080113C0074C93E806000023A047044629463068DF
S315080113D0044D22460023A84720467CBD283A001022
S315080113E02D100108FD4D010838B5446A054D03461F
S315080113F00122086819460023A8472368984701204F
S3150801140038BD00BFFD4D0108F8B5456A04460E46CC
S315080114100DB32B68D8070CD50868154F214601224C
S315080114200023B847134B2020002164229847124B0A
S315080114309847124B984770B12A68114B12F0020F60
S3150801144003D09A6842F0010204E0510703D59A686D
S3150801145042F005029A600A4B30681A6842F0005257
S315080114601A60214601220023014CA0470120F8BD3C
S31508011470FD4D0108C16401087D8B010861720108EF
S31508011480505E001030B50E4A0E4D89B0034690697C
S315080114900290D0690390106A526A05900692022258
S315080114A0079202AA0092182201240192086804945C
S315080114B0194622460023A847204609B030BD00BF79
S315080114C00C2E00104D4C0108012070471FB503462C
S315080114D004AA0748074C42F8040D00920422019217
S315080114E00868012219460023A047012004B010BD4F
S315080114F0505E00104D4C010830B5436A02460F484C
S315080115001C6805685B682C430460046824EA0303C5
S315080115100360D36913F0010385B00BD1046804A8ED
S3150801152040F8044D0090042001900868044C1146C7
S315080115300122A047012005B030BD00BF505E001052
S315080115404D4C010838B58380BDF81030069DC3801F
S315080115501446059A018000234480037242B13DB1C5
S315080115600830372D34BF2B4637233821014CA04785
S3150801157038BD00BFC58A01082DE9F041A2B022ACE9
S315080115808846002144F8741D456A444B0646742270
S31508011590204698472B68013B062B6FD8DFE803F0F6
S315080115A004121E6E2C34630022AC40F21F4344F829
S315080115B0743D3B4B984700285DD0059B43F02003BB
S315080115C0059358E0374B9847374B05909847374B63
S315080115D006909847012207900C2342E004230A93B8
S315080115E03348344B344D9847314A03461421204633
S315080115F0A8470122182344E02046304B9847012882
S315080116003CD1024674233CE02D4F2A4B3846984775
S3150801161000258DE8A00002902B46204604210322CE
S31508011620284FB847284BD3F8043183B15B6973B1A6
S315080116305A8CD88B198C9B8BADF85A20ADF854303F
S31508011640ADF85600ADF858100122482319E0ADF857
S315080116505450ADF85650ADF85850ADF85A500122CD
S31508011660482305AC0DE02046184B9847012805D1BB
S315080116700246402305E00122042302E00022134624
S31508011680144600940193D8F80000114C3146002302
S31508011690A047012022B0BDE8F08100BFB92705089F
S315080116A061720108CF650108D3650108D76501088C
S315080116B0AB800508F58A0108C58A01089163010806
S315080116C0B780050845150108DC630010DD0101082E
S315080116D04D4C010830B5436A85B004460D46186875
S315080116E0094B4FF400619847039050B103AB00933F
S315080116F0042301932868214601220023034CA047AD
S31508011700012005B030BD00BFBD7F02084D4C010860
S31508011710F0B5134C456A134B064685B060680F460B
S315080117209847D8B104AB012243F8042D009304234A
S3150801173001933146134638680B4EB04700212020E5
S315080117404FF49672094B984760682968084B984781
S31508011750A0F1010EDEF1000040EB0E0005B0F0BD70
S315080117600C2E0010295C01084D4C0108C1640108C2
S31508011770495C010870B5446A164B8AB005460E469F
S3150801178003A818219847B4F85430ADF81030B4F8C6
S315080117905630ADF81230236C0393636CADF81830EC
S315080117A0A36CADF81A30E36C0793236D03A908936C
S315080117B02046094B094C98470AAB294643F8040DBC
S315080117C0009304230193306801220023A0470120D6
S315080117D00AB070BDE5090108E16501084D4C01082B
S315080117E02DE9F04F87B0446A234BDFF89C8000252A
S315080117F082468B4602A80C21059505AF984704F148
S315080118000C060095019794E803003246A368C04781
S31508011810E0B1059BAB4219DD03F108094846174BB0
S315080118209847054690B100F108038DE888003246CD
S3150801183094E80300A368C04728B1059B6B600123A0
S315080118402B604B4604E028460D4B98470C2302AD06
S315080118500193012200230095DBF80000094C51464B
S31508011860A04702AB9D4202D02846054B9847012066
S3150801187007B0BDE8F08F00BFE509010899800208A5
S31508011880852D02084D4C0108E76501082DE9F0434D
S3150801189087B000254FF00408446A244B04954FF499
S315080118A0807206468946CDF81480FF212048214FCB
S315080118B0984704AB009305AB019301212A4603958A
S315080118C020682B46B847049A012A10D106ABD9F8E5
S315080118D0000043F80C2D31468DE80801164F2B46BA
S315080118E0B847202029464FF4C872144B984704F18B
S315080118F0080194E80500124B984740B12068114B3E
S315080119009847039018B920680F4B9847039003AB83
S31508011910009304230193D9F80000074C31460122AC
S315080119200023A047012007B0BDE8F083B9270508C1
S315080119302C3A0010E76501084D4C0108C1640108FD
S31508011940EB650108EF650108F365010870B586B016
S315080119504023446A05934FF480721A4B05460E4696
S315080119601948FF21984702A80C21184B9847206867
S315080119701549174B05AA984788B14FF48470154B3A
S315080119809847044658B1059A0F494260012340F821
S31508011990083B9200104B98474FF4847301E00C23DF
S315080119A002AC0193294600230122009430680B4DAD
S315080119B0A84702AB9C4202D02046094B9847012012
S315080119C006B070BDB92705082C3A0010E5090108CB
S315080119D0F765010899800208852605084D4C010816
S315080119E0852D02082DE9FF41446A884661684B093D
S315080119F03F2B054627D8224E06EB830301F01F022B
S31508011A005B6823FA02F3DB071AD504F1080300938E
S31508011A100423019304F110022068E368194FB847BB
S31508011A200390E0B163685A0906EB820603F01F03C7
S31508011A30012202FA03F3726822EA030373600EE0D5
S31508011A40012303930BE004F1080300930423019394
S31508011A5004F110022068E3680A4CA0470390039832
S31508011A6058B103AB009304230193D8F80000064C40
S31508011A70294601220023A047012004B0BDE8F081D0
S31508011A80283A0010FB6501084D4C0108F0B5446A77
S31508011A90154B626804F1080585B006460F462068AD
S31508011AA02946984704AB314643F8040D00930423AD
S31508011AB0019338680D4E00230122B047039B53B1A9
S31508011AC00021C8220A4B2020984720686268094BE2
S31508011AD02946984703900398A0F10102504240EB2A
S31508011AE0020005B0F0BD00BFFF6501084D4C0108B5
S31508011AF0C164010803660108F0B5ADF5357D0746F1
S31508011B000E46BA98104CB4A903AD41F8045D00908D
S31508011B1010460422A047044658B1B39B00955D1BA5
S31508011B2001953868094C314601220023A047012056
S31508011B3006E03868064D314622462346A847204620
S31508011B400DF5357DF0BD00BF0D0801084D4C0108A6
S31508011B50FD4D0108436A70B505460E4608461968E3
S31508011B60084B9847044618B10748084B2146984739
S31508011B70221C18BF01223068054C29460023A047BC
S31508011B80012070BDF50B0108505E0010650D0208B5
S31508011B90FD4D0108026A38B50D46416A2423043A07
S31508011BA004460431B2FBF3F20548064B9847286808
S31508011BB0214601220023044CA047012038BD00BF5D
S31508011BC0505E0010B1820208FD4D010870B58CB057
S31508011BD003AC05460E460B480B4B21469847014672
S31508011BE018B920462422094B9847242300940193C7
S31508011BF03068074C294601220023A04701200CB072
S31508011C0070BD00BF505E001045070208B9270508D8
S31508011C104D4C0108084A30B50023D2F8004106E0C8
S31508011C2052F8040B10B1C5688D4203D00133A342A3
S31508011C30F6D1002030BD00BFDC63001070B50D6819
S31508011C40084B0C46290C1646984748B1036BADB2AA
S31508011C509D4204DA30462146034B984770BD002061
S31508011C6070BD00BF151C0108893C020870B50D68D6
S31508011C70084B0C46290C1646984748B1436BADB23A
S31508011C809D4204DA30462146034B984770BD002031
S31508011C9070BD00BF151C0108F13F020870B50D683B
S31508011CA0084B0C46290C1646984748B1836BADB2CA
S31508011CB09D4204DA30462146034B984770BD002001
S31508011CC070BD00BF151C0108A140020838B50846B9
S31508011CD01D46094B1446984700232B7050B1D0F87E
S31508011CE0500103E0621E2CB1184614464368002BC6
S31508011CF0F8D1184638BD00BF150C01082DE9F04F7B
S31508011D004E4B466A9DB0B4681793002381468B46AD
S31508011D1018930FA817A94A4B98471CB12046494B57
S31508011D209847044600251B9517A831462A46464B6F
S31508011D309847A84282465ADB4FF0FF338DE82800C0
S31508011D404248189A424D04231BA9A84700288246EF
S31508011D504DDB1B9B0CB1C3F87041D3F85841226B7C
S31508011D60557A002D67D003A8E16A3A4B9847079B35
S31508011D706469980606D531490023013D84E80A00BD
S31508011D80EDB20C3413AF03A83946DFF8D880C04743
S31508011D90002882462BDB0DF10C0CBCE80F000DF177
S31508011DA0240EAEE80F009CE803008EE8030008E065
S31508011DB009A83946C0470028824618DB9DF84C30E9
S31508011DC09BB90E9B002BF3DC0027DFF89C8009E00A
S31508011DD01E48214603AAC0470028824607DB013769
S31508011DE0FFB20C34AF42F3D125E04FF0224A1B98DB
S31508011DF018B1194B984700231B930FA8174B9847FF
S31508011E00BAF1000F05D11B9B7268C3F868219B695B
S31508011E1001E04FF0FF331A931AAB009304230193A1
S31508011E20DBF800000E4C494601220023A047012099
S31508011E301DB0BDE8F08F4FF0000ADEE71000010083
S31508011E40F50D0208150C01082D7F0208505E0010D9
S31508011E50D5AC02088D3B0208C5A80208290E02085E
S31508011E604D4C0108B5510208419802087FB5002476
S31508011E7006460D4608460294039402A903AA0D4B89
S31508011E809847A04206DA2246234628680A4C314674
S31508011E90A04709E0029B28680093039B31460193FA
S31508011EA001222346054CA0470298054B9847012075
S31508011EB004B070BD4D0C0108FD4D01084D4C0108DB
S31508011EC0552D0208F0B585B0436A124F00240394D4
S31508011ED005460E4608460294196802AA03ABB84796
S31508011EE0A04206DA2246234630680B4C2946A0470B
S31508011EF009E0029B30680093039B2946019301225E
S31508011F002346064CA0470298054B9847012005B081
S31508011F10F0BD00BFBD0C0108FD4D01084D4C01087F
S31508011F20552D020830B5436A044685B018680B4B2F
S31508011F300D46984720B10A4B98470123039300E0C1
S31508011F40039003AB009304230193286821460122D9
S31508011F500023044CA047012005B030BD150C01082B
S31508011F60C5A802084D4C0108436A70B504461868AD
S31508011F70084B0E469847054608B1074B98472A1C51
S31508011F8018BF0122306821460023044CA0470120CE
S31508011F9070BD00BF150C010825A90208FD4D0108F1
S31508011FA0436A70B504461868084B0E4698470546B5
S31508011FB008B1074B98472A1C18BF012230682146E9
S31508011FC00023044CA047012070BD00BF150C010871
S31508011FD0FDA80208FD4D01082DE9F04F436A0746A1
S31508011FE085B01868254B88469847002843D0D0F80D
S31508011FF07061DFF8A8B0F368DFF8A4A0DFF8949061
S315080120000EE01D6905B9D84705F13000D04750B132
S31508012010C3681B480393C847039B834222D02346C0
S315080120205C68002CEDD10C20164B984705462946CD
S315080120301348154A154B984700281BDBD6F8643117
S315080120406C689B693046E36104F124022146104E0F
S31508012050B04700280EDB0A480E4B984704F13002B8
S315080120602146B04700230093404639462A460A4C82
S31508012070A04700E0002005B0BDE8F08F150C010867
S31508012080505E0010998002085C61001035850208CF
S31508012090B56E0208710D0208F91A01086572010880
S315080120A0A52F0208436A37B504461868074B0D463B
S315080120B0984710B100F1300200E00246002321469C
S315080120C000932846024CA0473EBD00BF150C0108E7
S315080120D0F91A010873B5426A164C02AB002003F8D7
S315080120E0010D084606CAA047064608B3C568D5F8CD
S315080120F014310BB9104B9847D5F814416A6B242350
S31508012100013C03FB04543C3463689A4201D00A4BF0
S31508012110984794F92030002B01DB074B984794F830
S315080121202030E66103F0B80343F0440384F8203015
S3150801213001207CBDCD1C010865720108F0B589B086
S31508012140426A184F08AB002604460D46084603F8AE
S31508012150016D06CAB8470246E0B1836AC1690293AE
S31508012160836B114ACB1A0393036B597A04919B7AB1
S31508012170C16B059303692868CB1A9B1053430693D1
S3150801218002AB009314230193214601223346074CDF
S31508012190A04704E021462868054C1346A0470120BC
S315080121A009B0F0BDCD1C0108ABAAAAAA4D4C01087D
S315080121B0FD4D01082DE9F341446A144F02AB4FF076
S315080121C0000805460E46084603F8018D94E8060000
S315080121D0B847024690B1A368816BCB18C361016900
S315080121E0E3680C2000FB0313D363536A306823F0BA
S315080121F00053536229460122434602E030682946C4
S315080122001346034CA0470120BDE8FC81CD1C0108FB
S31508012210FD4D0108F0B5436A0E46196885B00546B5
S3150801222019B9164BC3F8B0111CE001A8144A154B8D
S315080122309847002818DB114B029CD3F8B03173B1CB
S3150801224003F11401E768DB689F4204F114004FF0BB
S315080122500C0201D27A4300E05A430B4B9847074BCD
S31508012260C3F8B041012200E000223068074C294634
S315080122700023A047002005B0F0BD00BF505E001046
S3150801228068600010B1BB020885260508FD4D0108E6
S315080122902DE9F0439BB0446A484F1AAB00268046A5
S315080122A00D46084603F8016D94E80600B8478146CD
S315080122B0002878D0A268012A03D006D3022A73D14E
S315080122C007E0016B4369497A09E0016B8369897AF9
S315080122D005E00369C16B3A48C91A89104143E068A8
S315080122E0884263D20C27022A07FB003762D0384698
S315080122F0344B984700285DD0A368E668D9F82C10B6
S31508012300D9F83020012B03A807D12F4B9847079BF3
S31508012310701C9B0604D538B949E02C4B984703E055
S31508012320064601E01E4600E0294C03A80FA9A0476E
S31508012330731E002EF6D1274B3978182202FB01317C
S315080123404979042916D19DF8441002FB01335B79BA
S31508012350032B0FD87B88012B01D01F4B984797E891
S31508012360070013AB83E807009DF844203E468DF825
S315080123704C201F46194B09A812A998470C9BDB8AC2
S3150801238003F03003302B05D10AAA07CA16AB83E836
S31508012390070000E000230093284641463A463346A3
S315080123A00F4CA04703E002E0304600E000201BB0D6
S315080123B0BDE8F08300231E46EDE700BFCD1C0108EA
S315080123C0ABAAAAAAF50601088D3B0208A53B020895
S315080123D0B551020820900508657201083D420208B8
S315080123E0F91A01082DE9F043476A93B00D46396891
S315080123F00646119100292AD07B68002B27D002A80E
S31508012400404B9847002879DB03AA07CA0BAB83E838
S3150801241007007C68DFF80C81013C99460C9A0B9BF6
S31508012420926F0D9998B202EBC00250884A7D821AC2
S31508012430944207D3498A1B0C0C191B04A21A13438D
S31508012440BB6004E04846C0470028E7D157E007F1DA
S315080124500808284641460EAA2B4B984700284ED015
S31508012460119C24B94046294B984711902BE07B686B
S3150801247033B90F9BBDF83820DB6F33F812307B6018
S31508012480786800283BD02378113B012B05D92046D3
S3150801249011A91F4B9847002830DB119C23780D3B67
S315080124A0012B0AD86168A36800220A4319490A93CD
S315080124B008AB08910992119305E07B680C2202FB8F
S315080124C00344119400241198134B984770B102A83C
S315080124D00EA9124B9847002805DB059BDB8A03F0FA
S315080124E03003302B01D0002000E003A800902346DA
S315080124F028463146119A0A4CA04700E0002013B03D
S31508012500BDE8F083F54202086D1C010895480208EA
S31508012510552002080A000100F50601088153020840
S31508012520F91A0108913F02082DE9F043446A244A41
S3150801253023688DB00546049303920E4606A803A99F
S315080125406268204B984700282BDBDDF81C8098F839
S31508012550127047B1676898F8112008F1140307FB50
S315080125600237002408E003A806A9174B9847002854
S3150801257022DB4FF0FF3403AF3846144B984798B126
S315080125800DF1240908F108014846114B984758B13D
S315080125900B9BD88A00F0300030280CBF4846002033
S315080125A002E00020044607460090234630462946A5
S315080125B03A46084CA04700E038460DB0BDE8F0831E
S315080125C010000100F9150208B9890208F506010883
S315080125D0893C0208F91A010813B50023446A0093D5
S315080125E00246084611462268014CA0471CBD00BF99
S315080125F0F91A0108436A37B504461868054B0D46AA
S31508012600984700230246214600932846024CA047D4
S315080126103EBD00BF2D070108F91A010838B5436AFE
S315080126200D681979044603F108021868044B98479E
S315080126302146024600232846024CA047012038BD00
S3150801264069070108FD4D0108F0B5456A194B2C6863
S3150801265087B006460F468DE818000CB3A47CE4B98A
S3150801266003A869466A68144B9847002818DB684628
S3150801267003A9124B9847002812DB9DF80010104B4E
S3150801268005F108026846984748B12246684603A9F3
S315080126900C4B9847C443E40F02E0002400E00446CB
S315080126A03868224631460023074CA047012007B067
S315080126B0F0BD00BF10000100F9150208B98902082A
S315080126C069070108CD8B0208FD4D0108F7B5476A70
S315080126D00B4B054638680E469847044638B13A1DED
S315080126E00848094B2146984724EAE07200E0024669
S315080126F00023009330462946044CA047FEBD00BF7F
S315080127002D070108505E001035850208F91A0108DF
S315080127102DE9F341456A0F4B0646286888469847CE
S31508012720044670B169680C4B984748B147686A68AE
S315080127300A4B3846202198476B680022FA5400E074
S31508012740044600232246009340463146044CA047DE
S31508012750BDE8FC812D070108F1790208B9270508AA
S31508012760F91A0108F0B5476A0F4B85B0054638686E
S315080127700E469847044670B10223ADF80830BB6887
S31508012780F968ADF80A307B6802AA0393074B9847A4
S3150801279024EAE07200E00246002300933046294607
S315080127A0034CA04705B0F0BD2D070108A5BA0208DC
S315080127B0F91A01082DE9F047436A5C681F68A0B059
S315080127C005460E46002C6BD03A4BDFF814911D9343
S315080127D04FF0000819A81DA9374BCDF878809847FE
S315080127E0204603A9C8474045824652DB38460EA90A
S315080127F0C847404582464CDB9DF83C304BB19DF8B5
S315080128001230002B43D01DA8214642462B4B984730
S315080128103AE01DA839462A4B98470028824638DBF4
S315080128209DF81030BBB19DF83E3033B911A91DA8EA
S31508012830244B9847002882462BDBBDF87630012BBE
S3150801284001D0214B984720AB13E907004FF0000A46
S3150801285084E807001DE01DA81C4FB84730B1204683
S31508012860B84768B911A91DA8164B05E02046B8470F
S3150801287030B1174B11A91DA898470028824608DBD5
S3150801288020461DA9134B984700EAE07A01E04FF06C
S31508012890224A19A8104B9847BAF1000F18BF00240D
S315080128A0002322460093304629460C4CA04720B007
S315080128B0BDE8F08710000100F50D0208CD8B02086E
S315080128C0B98902083999020865720108F5090108EA
S315080128D01D880208D58A0208290E0208F91A010874
S315080128E035090108F0B5114CC3B003460020D4F8E8
S315080128F00071024602AE0AE054F8045B35B1ED6890
S315080129004FEA820E2D0446F80E5001320130B842C4
S31508012910F2D102A89200019200900868044C194667
S3150801292001220023A047012043B0F0BDDC6300105B
S315080129304D4C010830B5124AADF5806D83B003469A
S3150801294001ACD2F8D400002207E0C0690132B2F521
S31508012950807F44F8040F03D028464568002DF4D13A
S3150801296002A89200019200900868064C19460122B5
S315080129700023A047012003B00DF5806D30BD00BFCF
S31508012980505E00104D4C01082DE9F041436AADF542
S31508012990447D05460E4608461968204B9847044665
S315080129A0002830D0037EDFF884800293036B5F68CA
S315080129B03846C0470130B0F5FF7F03D83846C047CF
S315080129C0431C01E040F2FF133A464FF4007103A895
S315080129D0134FB847216A83A8002206E04969C968E6
S315080129E0090440F8041B013219464B68002BF5D13E
S315080129F0813202A99200009101923068094C294658
S31508012A000122A04705E0224623463068064C29469E
S31508012A10A04701200DF5447DBDE8F081F50B0108BD
S31508012A20C58A01084D4C0108FD4D0108F58A0108C2
S31508012A302DE9F041436A0E46ADF5067D5988184BD6
S31508012A400546304698470446F8B1A269154F06A8C7
S31508012A504FF4007140F2FF13B84762692369124CBB
S31508012A601C3292E803000DF10C080122C8F8003067
S31508012A7004AB83E803004FF403730193CDF8008098
S31508012A80306829460023A04705E0224623463068D8
S31508012A90064C2946A04701200DF5067DBDE8F081C3
S31508012AA0151C0108C58A01084D4C0108FD4D010890
S31508012AB0F0B50446ADF5097D0D46084683AA616A57
S31508012AC0124B9847B8B140F2FF1303AE8793869627
S31508012AD00F48104F83A986AA87ABB84700280ADB97
S31508012AE04FF4007301932146009628680A4C012287
S31508012AF00023A04705E0002221462868074C134613
S31508012B00A04701200DF5097DF0BD00BF3D1C010858
S31508012B10DC6300106D6302084D4C0108FD4D010888
S31508012B20F0B50446ADF50D7D0D46084684AA616AE1
S31508012B30194B9847002825D004AB8A9340F2FF1316
S31508012B408B931648164F84A98AAA8BABB8470028D7
S31508012B5002AE17DB84A987A8124B9847879BBDF855
S31508012B6010223360859B2868DB6F33F81230736057
S31508012B704FF40273019321460096012200230A4C61
S31508012B80A04705E0002221462868084C1346A047BD
S31508012B9001200DF50D7DF0BD6D1C0108DC630010EB
S31508012BA065C20208993E02084D4C0108FD4D01080F
S31508012BB0F0B50446ADF50D7D0D46084684AA616A51
S31508012BC0184B9847002826D087A884A9164B9847FA
S31508012BD0002820D004AB8A9340F2FF138B93879B7E
S31508012BE085980393869B114F1988114B98478BA992
S31508012BF00346104A8AA8B84703AE4FF401730193F6
S31508012C002146009628680C4C01220023A047012082
S31508012C100DF50D7DF0BD002221462868074C1346A7
S31508012C20A047F4E79D1C0108513E0208B52F01088B
S31508012C30D1390208E01106084D4C0108FD4D01087D
S31508012C4070B5466A86B00023039304460D4670683C
S31508012C500D4B04A99847002808DB32460B480C4E51
S31508012C6004A905ABB04708B1059B039303AB0093D1
S31508012C70042301932868214601220023054CA04715
S31508012C80012006B070BD00BF7D4402089C6100109A
S31508012C9081C502084D4C01082DE9F04F684B95B0E6
S31508012CA01C6804900591002C00F0BD8006AD2846ED
S31508012CB050212246634B9847C0B10026DFF8988118
S31508012CC0DFF8A4913746344614B92846C047074663
S31508012CD0099B2846F6180134C84750B1DDE9062391
S31508012CE0B9194A4052EA030103D1EDE706460746F8
S31508012CF00446DFF84C91544BD9F80000DFF85481AB
S31508012D0098474FF00C0B0BFB04FB0BF1240B0390BC
S31508012D1001215846C0470546002D00F08E805946C8
S31508012D204A4B98474A4BD9F80020D3F80C31D0685A
S31508012D30AE6085E888004FF0FF33EB6093681B6B44
S31508012D409847D9F8002028619368D068DB6A9847C4
S31508012D5050216861D9F800203A4B06A898470028FF
S31508012D6053D02E4600270023039A1393137803F0B2
S31508012D700203DBB233B90A98364B012198471390FF
S31508012D8000285AD02E4B0DF1180AD3F80080324B81
S31508012D90504698470999D8F8083000910246196AA9
S31508012DA0D8F80C0000238847A8B9DDF82490804696
S31508012DB00DE013A90A9A294B504698474246284BD3
S31508012DC013980A9998470A9B8046C3EB0909B9F1F2
S31508012DD0000FEEDC01E04FF0000803990B7803F0D1
S31508012DE00203DBB213B913981E4B9847069B0137AA
S31508012DF0B361099BC6F82080A742F36105DA06A8E4
S31508012E00194B98470C360028ADD18DE82008059A4C
S31508012E1004991068154C01220023A0472846114B36
S31508012E209847012009E0059B0094019418680499C4
S31508012E300E4D22462346A847204615B0BDE8F08F19
S31508012E40283A0010D9580108D9090108E5090108E5
S31508012E50DC630010BD7F02084D5401083158010892
S31508012E60D1060108552D02082D5701084D4C0108B8
S31508012E701FB514460D4B01AA9847A8B1039B5A885A
S31508012E804FF6FF739A420ED0029ABDF80430D2F873
S31508012E908420D15C14B141F0010101E021F0010166
S31508012EA0D154012000E0002004B010BD9D1C01088A
S31508012EB02DE9FF479146114B6A4606460F46984744
S31508012EC0C0B1029DDFF838A06B7B95F80C80984459
S31508012ED0AB7B002498440AE06B897A881B1943EA7C
S31508012EE00243304603A94A460393D0470134444571
S31508012EF0F2DB012004B0BDE8F08700BF3D1C0108E4
S31508012F00712E01082DE9F743446A236813F1000875
S31508012F10636818BF4FF00108022B0D461BD0052B1D
S31508012F201FD0012B24D16189134B284698470746A0
S31508012F3000B30026DFF8449008E06389284646EA8C
S31508012F40034301A942460193C84701363B6B9E429A
S31508012F50F3DB01200EE004F1080128464246074B3F
S31508012F6004E0074B04F1080128464246984701E068
S31508012F700020FFE7BDE8FE83151C0108B12E0108F4
S31508012F80712E010870B505460C4600680968084E99
S31508012F90B0470346C043C00F00B923682A68D11851
S31508012FA029600021D1542268D31A236070BD00BF5D
S31508012FB0B98A01080CB413B504AB044C53F8042BB5
S31508012FC00193A047BDE81C4002B07047852F010850
S31508012FD02DE9F3472E4B1B68064698000D4654D437
S31508012FE001314BD130462B4B9847054646E0D4F87C
S31508012FF00090C9F17F07BD42B8BF2F4631463A4610
S3150801300008EB0900D04709EB0703E2180021502B0A
S3150801301023603E44C7EB0505117105DC1E481F4BAD
S315080130200A21984700282ED01D4B9847184B1A6835
S3150801303052000ED51B68DB030BD41A4B1B681868A4
S3150801304038B142F20103009301212268124B164F4F
S31508013050B8470F4B154F1B6813F0804F03D0FA681A
S315080130607B689A4207D0124BF8680B492268984741
S31508013070F868104B98470023236004E00E4CDFF8EC
S315080130803CA004F10408002DB1DCBDE8FC8700BFB3
S31508013090505E0010F58A0108303B001065280508C6
S315080130A0918101088C630010354C01080C2E001023
S315080130B0115B0108E55B01082C3B00108526050814
S315080130C010B5ADF5027D0B4600A9809140F2FF11BE
S315080130D00246819180A881A9084CA04708B9084BE6
S315080130E098478199074BC1F5FE710331684681916D
S315080130F0984781980DF5027D10BD00BF852F0108FF
S3150801310065720108D12F01080FB407B504A9044B4C
S3150801311051F8040B01919847BDE80E4004B0704779
S31508013120C130010810B5ADF5027D00AB809340F2C0
S31508013130FF130146819380AA81AB064C0648A04736
S3150801314000238DF8FF316946044B054898470DF56C
S31508013150027D10BD6D630208DC63001009310108A8
S31508013160E011060810B5ADF5027D00AB809340F27B
S31508013170FF130146819380AA81AB054C0548A047F8
S315080131806946054B054898470DF5027D10BD00BFF8
S31508013190FDC10208DC63001009310108E0110608C7
S315080131A038B50B490B4D0446A84730B1636873B16E
S315080131B0196C0948094B984738BD20460849A8475C
S315080131C028B163681BB1196C0648044B984738BD8A
S315080131D064610010BD5502080B8405080931010810
S315080131E09461001035840508B0F1504F10B50346B7
S315080131F000F025817ADCB0F1244F00F004813ADC35
S31508013200B0F1174F00F0F1801ADCB0F1114F00F060
S31508013210E48008DCB0F1014F00F0DD80B0F1024F27
S3150801322040F047814CE1B0F1154F00F0DA80B0F17A
S31508013230164F00F0D880B0F1124F40F03A81CEE037
S31508013240B0F11A4F00F0D78008DCB0F1184F00F042
S31508013250CE80B0F1194F40F02C81CAE0B0F1224F6F
S3150801326000F0CD80B0F1234F00F0CB80B0F1214FB3
S3150801327040F01F81C1E0B0F1424F00F0D2801ADC64
S31508013280B0F1284F00F0C58008DCB0F1254F00F0F9
S31508013290BC80B0F1274F40F00C81B8E0B0F1334F54
S315080132A000F0BB80B0F1414F00F0B980B0F1314F69
S315080132B040F0FF80AFE0B0F1494F00F0B88008DC7C
S315080132C0B0F1444F00F0AF80B0F1484F40F0F180C3
S315080132D0ABE0B0F14E4F00F0AE80B0F14F4F00F0C9
S315080132E0AC80B0F14D4F40F0E480A2E0B0F1664FFA
S315080132F000F0C1803ADCB0F1594F00F0AE801ADC1B
S31508013300B0F1554F00F0A18008DCB0F1514F00F043
S315080133109880B0F1544F40F0CC8094E0B0F1574F0B
S3150801332000F09780B0F1584F00F09580B0F1564FF4
S3150801333040F0BF808BE0B0F1624F00F0948008DC6A
S31508013340B0F1604F00F08B80B0F1614F40F0B18071
S3150801335087E0B0F1644F00F08A80B0F1654F00F064
S315080133608880B0F1634F40F0A4807EE0B0F17B4FD6
S3150801337000F08F8017DCB0F1694F00F0828007DC1E
S31508013380B0F1674F79D0B0F1684F40F0928076E09E
S31508013390B0F1784F79D0B0F17A4F78D0B0F1774F54
S315080133A040F087806FE0B0F1007F7AD009DCB0F198
S315080133B07F4F72D0B0F1807F71D0B0F17E4F78D156
S315080133C069E0B0F1806F70D0B0F1A06F6FD0B0F145
S315080133D0407F6ED167E03B4810BD3B4810BD3B4876
S315080133E010BD3B4810BD3B4810BD3B4810BD3B488E
S315080133F010BD3B4810BD3B4810BD3B4810BD3B487E
S3150801340010BD3B4810BD3B4810BD3B4810BD3B486D
S3150801341010BD3B4810BD3B4810BD3B4810BD3B485D
S3150801342010BD3B4810BD3B4810BD3B4810BD3B484D
S3150801343010BD3B4810BD3B4810BD3B4810BD3B483D
S3150801344010BD3B4810BD3B4810BD3B4810BD3B482D
S3150801345010BD3B4810BD3B4810BD3B4810BD3B481D
S3150801346010BD3B4810BD3B4810BD3B4810BD3B480D
S3150801347010BD3B4810BD3B4810BD3B4810BD3B48FD
S3150801348010BD3B4810BD3B4810BD3B4810BD3B48ED
S3150801349010BD3B4810BD3B4810BD3B4810BD3B48DD
S315080134A010BD3B4810BD3B4810BD3B4810BD3B48CD
S315080134B010BD3B483B4A3C4C1F21A047384810BD2C
S315080134C03A4810BD5F84050897840508AC84050849
S315080134D0C2840508D8840508F284050814850508F8
S315080134E0288505083E850508558505086A85050860
S315080134F07B85050892850508A5850508B88505080B
S31508013500D6850508F485050809860508148605087B
S315080135102C86050841860508668605087D86050800
S315080135209F860508B2860508C6860508CF8605085A
S31508013530EA860508068705081C8705082B870508F6
S31508013540438705085E870508718705088987050881
S3150801355097870508AC870508C1870508DB8705082D
S31508013560F287050806880508208805083A880508A7
S31508013570548805087088050884880508958805080B
S31508013580A9880508C1880508CF880508DA880508C5
S31508013590EE880508048905081B8905082C8905088C
S315080135A0B03B001044890508DD83010879840508C4
S315080135B0F7B51E4B0646084698470446002833D0F9
S315080135C01B4D1C48A847201D1B4B98471B4B606B7E
S315080135D09847F36801469A691948A847237B102B2F
S315080135E007D123692BB15968164B002908BF19461B
S315080135F000E0144914480E4DA847204601A9134B6B
S31508013600984788B10446124E07E01248A84738463B
S31508013610B047114854F8041CA847019B5A1E27466F
S3150801362001920834002BF0D1FEBD00BF7D100308BE
S31508013630093101084B89050825310108E9310108D5
S315080136405F89050889E00508718905089510030849
S3150801365065310108888905089289050868B161B14B
S3150801366088420AD08A684B6802B1536003B19A60EE
S31508013670836848608B6059608160704738B5182146
S3150801368005460022044C00F10C00A047142102460D
S3150801369005F12400A04738BDD106010810B538390F
S315080136A0064A03E01C680430944204D08842034663
S315080136B0F8D3002010BD184610BD00BF31564F5033
S315080136C00268074B9A4207D14368013306D18068DD
S315080136D0003018BF0120704700207047002070474E
S315080136E03156535070B50446A1F10C06054D03E059
S315080136F02046A84720B90434B442F9D3002070BD46
S31508013700204670BDC1360108836B23B1406C003079
S3150801371018BF01207047184670470000F0B50746E4
S3150801372093B048250E462A463946064C6846A047B0
S3150801373031462A463846A047304669462A46A047B2
S3150801374013B0F0BD8526050837B5046BC16BA568AE
S31508013750D0E90223006C401A8DE80300E968E068A5
S3150801376088473EBDF8B504461A4B006B0D46984787
S31508013770236AC269182101FB0323616A5A6906464D
S315080137800C2000FB01202968426880680130801AF4
S3150801379088421CD9206B01EB020ED9688768C0687C
S315080137A0D3E90023E1FB0E23796A88472B68A0F148
S315080137B001014F4247EB010701332B60337803F0D0
S315080137C00203DBB223B92046034B984700E00027E2
S315080137D03846F8BDD909010849370108F7B502ACD9
S315080137E00023074644F8043D044E054D00E0A8476A
S315080137F038462146B0470028F9D1FEBD653701088C
S31508013800918101082DE9F043144B85B00446006BFC
S3150801381016460D469847027802F00202D2B222B144
S315080138200F48104B9847002015E0E16B236BC1EB5D
S31508013830050ED4E902019F68029210EB0E0841F1C8
S31508013840000900960195D868396942464B4688476A
S31508013850003018BF012005B0BDE8F083D909010879
S31508013860A589050809310108034610480A46416E2B
S31508013870994210B5014604D8846E9C4201D9283074
S3150801388009E0D1F8AC100948994208D8D0F8B01027
S31508013890994204D970301946054B984710BD194607
S315080138A00448054B9847002010BD00BF785D0010FD
S315080138B005380108D389050809310108002303E001
S315080138C0C258013204D104338B42F9D3012070471F
S315080138D000207047F0B5134F134B85B00546B86DF8
S315080138E00E4614469847037803F00203DBB26BB120
S315080138F0BA6D91688DE8500000230293D068096972
S315080139002A468847003018BF012008E03146074B90
S3150801391028462246984728462146054B984705B02A
S31508013920F0BD00BF785D0010D90901088526050894
S315080139306938010873B50546806B019160B1074E78
S315080139400A24A86B01A908300422B04718B9013C1A
S31508013950F7D1204600E001207CBD00BFD53801081B
S3150801396007B502A9002341F8043D04300422014B9E
S3150801397098470EBDD53801082DE9F047DFF878805C
S315080139801B4B86B00446D8F858000F46164698478A
S3150801399000250595037803F00203DBB29BB91A46A5
S315080139A01CE06359BB420CD1D8F8583004209968F9
S315080139B0CDF808908DE801046219D86809690023D1
S315080139C08847043502E0A9460DF1140AB542E8D341
S315080139D00AE0E158B94208BFE2500433B342F8D3CA
S315080139E020463146034B984706B0BDE8F08700BF2D
S315080139F0D909010869380108785D001008B5014B35
S31508013A00984708BD3951010810B5044B0446984733
S31508013A1020464CF25031024B984710BD39510108E6
S31508013A2011500108D0F8BC3010B504461BB100F19D
S31508013A30BC000C4B9847D4F8C0301BB104F1C00048
S31508013A40084B9847D4F8C8301BB104F1C800054B98
S31508013A509847D4F8CC301BB104F1CC00014B9847F8
S31508013A6010BD00BFA511020838B5094B094C05461A
S31508013A70084611461A68A0470421024605F10C00BA
S31508013A80A0470421024605F11000A04738BD00BF32
S31508013A90C0650010D10601080268124B9A4270B53A
S31508013AA005460C4619D1104B86689847864216D1A9
S31508013AB08CB16B68013310D1284605F1380150F8ED
S31508013AC00C4F6A69094B9847C0EB040EDEF10000FA
S31508013AD040EB0E0070BD012070BD002070BD0020B6
S31508013AE070BD00BF31564F507D360108693A01084D
S31508013AF010B581B18C6A8CB1C36B243C9C420CD342
S31508013B00036C9C4209D220460121054B984700289F
S31508013B1008BF002402E00C4600E00024204610BD40
S31508013B20993A010870B50646054C00F128000D467C
S31508013B30A04718B906F170002946A04770BD00BF15
S31508013B40F13A010838B5D0F8BC308B4204460D4627
S31508013B500AD1D0F8C00020B1174B98470023C4F802
S31508013B60C0300023C4F8BC302B699B000AD5204617
S31508013B702946124B984708B10F4B98472B6923F0F2
S31508013B8000532B612A6922F080422A61D4F8B820B1
S31508013B900023012AAB6204D00CD3043A022A09D8BD
S31508013BA005E0C4F8B8302046054B984738BD0223CE
S31508013BB0C4F8B83038BD00BF61390108253B010892
S31508013BC0093A0108F7B52D4BC56B04460E4648223E
S31508013BD00021984704F10800F1B2294B98470028BB
S31508013BE04AD0284B206B9847037803F00203DBB2CF
S31508013BF0BBB945B96069244B0C219847054610B9EC
S31508013C00E063206438E06169206BE56386688DE8C6
S31508013C1022006B182364F168C068D4E90223884737
S31508013C2004E0A3686269E3639B182364216CE06B73
S31508013C300B1A0C3B5A22236053436422B3FBF2F35B
S31508013C406360124B9847A063A8B10C306064104FAB
S31508013C50104E0BE06B693B3323F00303ED186564E3
S31508013C6028460021B0470028F4D1281D216CB84701
S31508013C7005460028F4D10120FEBD00BFB927050875
S31508013C8039590108D909010879800208E536010878
S31508013C909D360108993A01082DE9FF41114BC46B7C
S31508013CA001934FF0FF3302930393036C0E4F0F4EAC
S31508013CB00546A3F10C080EE0204601A90C22B847D7
S31508013CC020B12846E9690A4B984707E02046054985
S31508013CD00C22B04704344445EED3002004B0BDE8B5
S31508013CE0F08100BF31565350D5380108793901089A
S31508013CF0C53B0108F8B5044600292FD08D6A002D69
S31508013D002ED0184A4FF0FF3301F10C0780E80C005A
S31508013D1000F10C060FCF0FC697E803006269124B34
S31508013D2086E8030005F1140104F10C00984722699D
S31508013D300E4BE06013402361294614220C4B04F113
S31508013D402400984794F8253043F0090384F8253070
S31508013D502046084B9847A0600120F8BD0846F8BDE3
S31508013D602846F8BD31564F50693A010807000080C8
S31508013D70852605087D3601082DE9F04F1E460023E4
S31508013D80136033600446406C8FB01546002836D060
S31508013D9068461C4BEA469847002830D0059F236C95
S31508013DA0DFF870903B3727F003073C37C7EB03086A
S31508013DB0EA461FE058463946C84798B15846694603
S31508013DC03822114B984768B1636C2B60636C3833A2
S31508013DD03360059B626C3B3323F00303D31863649A
S31508013DE001200CE0094B606C094938229847636C3D
S31508013DF004336364D4F844B0C345DBD300200FB061
S31508013E00BDE8F08FF53C0108D53801087939010874
S31508013E1031564F50BD3801082DE9F04FDFF8F8B299
S31508013E20ADF5006D85B004468846D847D4F8B83054
S31508013E30062B00F20082DFE813F00700FE019A0064
S31508013E40B900CC004601CB01B8F1000F40F0FB8167
S31508013E50A648216AA64B9847002800F0EE81F2E1B0
S31508013E60A24A9946D2F83C5128E02A69910724D5F5
S31508013E70AE6A16B369693B3121F0030192008944A0
S31508013E801BD404F1280004F1C00204F1CC0329462D
S31508013E90984FB84748B106F11403C4F8C830F36817
S31508013EA0C4F8BC50C4F8C4300BE0E36AC4F8C800CF
S31508013EB09945C4F8C40004D286E11D466B68002BF7
S31508013EC0D3D1D4F8BC0018B90123C4F8B830B5E188
S31508013ED0D4F8C450D4F8CC00D4F8C810864B802D39
S31508013EE028BF80252A4698470646002800F0DE8026
S31508013EF0D4F8CC305B19C4F8CC30D4F8C8305B1987
S31508013F00C4F8C830D4F8C4305D1BC4F8C450002DB9
S31508013F108BD1D4F8BC30D4F8C0701A6912F0040FEA
S31508013F2007F1240712D09D6A74486B880C265E43F4
S31508013F3001A98022724B98472A4633466F48714D2C
S31508013F403946A8476D48704B984700E09F62D4F8F8
S31508013F50BC301A6942F000521A610023C4F8BC3019
S31508013F60C4F8C030C4F8C830C4F8CC305DE7B8F13D
S31508013F70000F40F06E815D48616A5D4B98470028E5
S31508013F8000F05B8165E1D1621A465368002BFAD1CC
S31508013F90C4F8BC30C4F8C030C4F8C830C4F8CC3052
S31508013FA0C4F8C430C4F8D03003230FE0B8F1000FC9
S31508013FB040F054814D48616A4D4B9847002800F0FE
S31508013FC03C814BE1514B284698470423C4F8B83045
S31508013FD02BE7B8F1000F40F04C814448216A444B65
S31508013FE09847002800F0298143E1404AD2F83C511C
S31508013FF025E02969880721D5AE6AFEB168693B3093
S3150801400020F003001B18880018D5E96AB1B9626F58
S31508014010934217D204F1700004F1C00204F1CC03F3
S315080140202946344FB84768B106F11403C4F8C830B5
S31508014030F368C4F8BC50C4F8C43003E015466A688E
S31508014040002AD6D1D4F8BC300BB90523BEE7D4F87B
S31508014050C450D4F8CC00D4F8C810274B802D28BFFB
S3150801406080252A469847064600B3D4F8CC305B1912
S31508014070C4F8CC30D4F8C8305B19C4F8C830D4F8C1
S31508014080C4305D1BC4F8C450002D7FF4CEAED4F8FD
S31508014090C020D4F8BC302432DA62C4F8BC50C4F863
S315080140A0C050C4F8C850C4F8CC50BEE6D4F8C00015
S315080140B0174B9847C4F8BC60C4F8C060C4F8C86018
S315080140C0C4F8CC60B1E6B8F1000F40F0D8800748D3
S315080140D0216A074B9847002800F0AF80CFE0034BD1
S315080140E00C4FD3F83C5104F1280926E0505E001024
S315080140F021050208793D0108D538010894630010A5
S315080141000111020825150208E1140208993C010863
S3150801411061390108F13A0108918101082B69990071
S315080141200AD5EB6A43B948462946B847C4F8C000D8
S3150801413010B1C4F8BC5003E035466E68002EEDD1C7
S31508014140D4F8BC300BB9062340E7D4F8C0304F4A3F
S315080141501E6B4F4B0DF50060043031469847002819
S3150801416032DBDDF80858D4F8C0104A4B38313246EC
S3150801417005F114009847D4F8BC301A69520712D5CC
S315080141809E6A454873880C275F4301A98022434BE1
S31508014190984729463B464048414D3246A8473E483E
S315080141A0404B984700E09D62D4F8BC30D4F8C00073
S315080141B01A6922F000521A613B4B98470023C4F84A
S315080141C0C030C4F8BC3030E60223C4F8B83034E055
S315080141D0324B3148DFF8C8A001A980229847334BF2
S315080141E00027D3F83C514FF00C090EE0E96A59B1A2
S315080141F02B69580706D5AA6A2748538809FB03F38A
S31508014200D04700E0A962EF6235466E68002EEDD10F
S315080142102148244B9847236E9968254B04F170056C
S3150801422001312846984704F128012846214B984729
S31508014230C4F8B860F9E5002000E0012005B00DF5E5
S31508014240006DBDE8F08FD4F8BC30002B7FF440AE8A
S3150801425006E6164B0021D3F83C2196E604F17005D3
S3150801426004F1D0012846144B984700283FF4DDADE8
S31508014270A8E6D4F8BC30002B7FF4E9AEB5E6D4F84D
S31508014280BC30002B7FF461AF29E700BF3060001016
S31508014290B1BB0208852605089463001001110208BE
S315080142A025150208E114020861390108505E00105B
S315080142B0353901081D3701086537010808B5012197
S315080142C0014B984708BD00BF193E010808B50448C7
S315080142D0044B0021984710B10148034B984708BD84
S315080142E0785D0010193E0108093A010838B5182108
S315080142F004464FF480723023044D0548A8472060D0
S3150801430000280CBF4FF07A40002038BD71790208A9
S31508014310505E00102DE9F0411D4B90B004468846C9
S31508014320984700282BD01B4E0023C8F80060C8F810
S315080143300430636A002B22D1A36A03B3256915F0F9
S3150801434004051BD10B93144F0E9502A80AA90A96C8
S315080143500D96B84706A80DA9B8472B462A460AA9B5
S3150801436000950DA80D4FB8470028BCBF0E950D96B0
S3150801437006A80B4DA84702A8A8470E9B6362636A65
S31508014380044A002088E80C0010B0BDE8F08100BF9F
S31508014390254F010810000100F50D02082F4F0108ED
S315080143A0290E020810B582684368014602B15360B6
S315080143B003B19A6000238B604B600B69002B0BDA03
S315080143C0074B0A6AD3F83C0100E01846436823B153
S315080143D0046A9442F9DC00E00248034B984710BD91
S315080143E0505E00108C5F00105D36010870B50B78C1
S315080143F0102B8EB004466FD14D683A4E099503F5D8
S31508014400803308930B9300230C93684608A9B04799
S3150801441004A80BA9B04723696562002B4ADA324B17
S315080144209847002846D0FDB12B780F3B042B4BD873
S31508014430DFE803F00D4A0D0D03002B7C032B06D193
S315080144402A4B0C950B93236943F004030BE00022D6
S31508014450274D0BA808A91346A8470028054635DBAA
S31508014460236923F0040323610C9E0EB1F56800E06D
S315080144703546A16A09B1CB6800E00B469D4207D1D2
S31508014480C5B106F1140014312A461A4B984788B16A
S3150801449019481A4B2146984765614DB104F10C003C
S315080144A006F114012A46164B9847A662E06001E018
S315080144B0E560A562134D04A8A8476846A8472046A3
S315080144C0114B9847002509E04FF0224504A80D4CE9
S315080144D0A0476846A04701E04FF0224528460EB09E
S315080144E070BD00BFF50D0208254F01081000010037
S315080144F0294F010825260508785D0010453B010866
S31508014500693A0108290E0208A54301082DE9F7436E
S3150801451004460021D8224E4B4E4F04F128059847F0
S315080145202846E021B847002800F08F8004F170067C
S315080145303046F021B847002800F087800022464916
S31508014540C4F8B820A2612046444B9847A26D9368E7
S31508014550D068DB6A9847830103F57873A26D4FF437
S315080145607A770733B3FBF7F323629368D0681B6B3B
S31508014570984700F5FA735B00013BB3FBF7F76762EF
S315080145803046374FB84768B12846B84730B1226E2A
S31508014590D4F8A83092689B689A4203D228463146D5
S315080145A0304B984728462E4B984748B928462E4BF4
S315080145B098472E4B28469847284601212C4B984761
S315080145C02846274B9847002839D0206EDFF8B8903F
S315080145D0284E0C302EE028460121B047E0B101A84B
S315080145E0C047002818DB05F10C0EBEE80F00DDF800
S315080145F004C00CF10C070FC79EE8030005F124035C
S3150801460087E80300CCF8283060461B4B9847019B86
S315080146101A6942F0C0421A616B693B3323F00303FE
S31508014620ED1801E0DFF8648028460021B04700282C
S31508014630D1D1281DA16EC84705460028F2D10F48D9
S315080146400F4B984720460F4B9847BDE8FE8300BF9E
S31508014650B9270508C53B0108CD420108F1500108F3
S31508014660093701081D370108DD370108993C01089A
S3150801467035390108993A0108A5430108505E001029
S315080146804DC10208093A01089D360108ED420108A3
S3150801469038B50446044B054D984704F12400A8474C
S315080146A004F12800A84738BDA5120208A511020879
S315080146B0F0B50C23244E002542E00478182C16D1B7
S315080146C04488042C2ED1846A002C2BD0046914F05A
S315080146D0010F27D024F0005404614478456044F062
S315080146E0010444708560456200F1300427E0132C0B
S315080146F018D1046904F0FF14032C13D1477CD0F8B0
S315080147000CC044880CFB07F71F37B7FBF3F7BC420D
S3150801471008D103FB04048C4204D8477847F0010703
S3150801472047700CE003FB0204A14202D20A1A921056
S315080147307243140444F01504046003FB0204204682
S315080147408842BAD30120F0BDABAAAAAA2DE9F8433B
S31508014750064603680C2539E09C69D3F81C9032E0BB
S315080147602378182B2CD1A06A336823E09969DB6971
S3150801477081421ED898421CD219E0814213D1CA68D7
S3150801478063699A4219D12046143150F80C8F124B9D
S315080147909847804511D1236943F080432361204618
S315080147A00E4B98470CE0B1F802C005FB0C11994273
S315080147B0E3D313465A68002AD8D10CB115232370BE
S315080147C0638805FB03444C45CAD33B465F68002F03
S315080147D0C2D1BDE8F88300BF693A0108A5430108BB
S315080147E0486A10B50C4618B1024B98470023636214
S315080147F0012010BD552D020838B5144612680D461C
S3150801480082B1D0F8A4000968074B9847002807DD4C
S315080148102B681B182B602368181A2060012038BDE5
S31508014820002038BD012038BDA15B010810B50C4632
S31508014830064B9847206A38B14FF40061044B9847F4
S3150801484018B16062012010BD012010BD91810108D7
S31508014850BD7F02088268436802B1536003B19A605A
S315080148607047000038B5051F0C460AD049B18D427C
S3150801487007D0044B084698476B68A56063609C603F
S315080148806C6038BD554801082DE9FF411F460AA845
S31508014890254B8846164698470546002841D068465E
S315080148A02946224B984706F130004FF40061204B08
S315080148B09847044620B968461E4B9847204630E07B
S315080148C000230DF1300C4360836000F1100EC0F82F
S315080148D00C80BCE80F00AEE80F00DCF80030A662D9
S315080148E0CEF80030119B63622FB104F12C003946D2
S315080148F03246114B9847203509D0A54207D00F4BB0
S3150801490020469847AB686560A3605C60AC600C485C
S315080149100C4B4FF0807198476846064B9847012023
S31508014920FFE704B0BDE8F08147E80208F50D020883
S31508014930BD7F0208290E0208852605085548010883
S31508014940505E0010E9A702082DE9F74F9946264B54
S31508014950DDF838A090469A68914204460D4605D17D
S315080149605B68994202D1B8F1000F3AD094F8A86071
S31508014970002E36D11D4FDFF884B02760032307F1D7
S315080149801802A360A261236204F188006460E461ED
S31508014990D84704F19400D84707F1300207F13803E4
S315080149A004F1300012490094124FB8470C9BC4F821
S315080149B0A06063620D9BC4F8A450E362C4F80C803E
S315080149C00D4BC4F810A0C4F81490C4F828A02846C2
S315080149D09847003018BF0120012384F8A90084F8FC
S315080149E0A830BDE8FE8F00BF0C2E0010088A050806
S315080149F04C8A050845540308455A01085F130208FD
S31508014A0030B50B4B1D1D85B01D600021B02228460F
S31508014A10084B98470024084B0295009401942846B0
S31508014A209968064D22462346A847204605B030BD5B
S31508014A30D03B0010B92705080C2E0010494901087A
S31508014A4038B590F8A8300446A3B10B4B1B781BB9AF
S31508014A50D0F8A400094B984704F18800084DA847E7
S31508014A6004F19400A8470023C4F8A03084F8A930BB
S31508014A7084F8A83038BD00BF3C470010C15A010868
S31508014A80912D020808B5034B1868034B9847002077
S31508014A9008BD00BFD03B0010414A010808B590F88F
S31508014AA0A83013B13030014B984708BD7156030839
S31508014AB02DE9F8430446904699468868104F002622
S31508014AC018E0D0E90623424573EB090104DBD4F863
S31508014AD0A030B3F5A05F0CD943686B6003B19D6044
S31508014AE086604660D4F8A0200369D31AC4F8A030BA
S31508014AF0B84728468568002DE3D1BDE8F88300BF8D
S31508014B00552D020800000000F8B50D4B0D4D044661
S31508014B10984709A3D3E90023861841EB03072046E2
S31508014B2004F1940132463B46A84704F18801204620
S31508014B3032463B46A847F8BD803C36FEFFFFFFFFDD
S31508014B4019820108B14A01082DE9F8430E6ACC69B0
S31508014B502E4F80460D46914604312022D0F8A400F6
S31508014B60B847202849D12B6A3BB1696A29B1D8F8D7
S31508014B70A4003246B847B0423FD1D8F8A400244B26
S31508014B809847B9F1000F3BD0A10439D4A20702D541
S31508014B9008F1880703E0E30732D408F1940706F120
S31508014BA0600948464FF400611A4B984704460028A5
S31508014BB029D0D8F8A0304B44C8F8A030C0F81090D6
S31508014BC0154BDFF85C8098473C22C4E9060104F1DD
S31508014BD020002946C04746B16B6A33B104F160002B
S31508014BE06064696A3246C04702E00023236463644D
S31508014BF038462146094B984702E00020BDE8F8836C
S31508014C000120BDE8F8830120BDE8F883115B01089E
S31508014C10E55B0108798002081982010865480108DF
S31508014C208526050808B50122014B984708BD00BF2E
S31508014C30494B010813B51446009330302346049AAC
S31508014C40014CA0471CBD00BF815603082DE9F04160
S31508014C50CF6992B00C46F907DDF86080199E24D415
S31508014C6047F00107E76107F4005712B147F4004717
S31508014C7001E047F480470BB947F00107002A00F124
S31508014C80300508BF164608BF904602A82946084BB4
S31508014C909847211D02A83346CDF800803A46054CAF
S31508014CA0A047284602A9044B984712B0BDE8F081EF
S31508014CB0D95203086D530308795403082DE9F041C5
S31508014CC0036A446AA3F1140C231D8846054693E832
S31508014CD003008EB08DE8030027460FCF02AE0FC63C
S31508014CE03B681249336004F1140E00276246734685
S31508014CF0079740460E4EB04784460FCC0DF1240E59
S31508014D00AEE80F0023680B4CCEF8003008AB01263D
S31508014D1000931823019340460896294662463B4666
S31508014D20A04730460EB0BDE8F08100BF92000200F0
S31508014D30894801084D4C01082DE9F041036A446A86
S31508014D40A3F1140C04F10C038846054693E8030005
S31508014D508EB08DE8030027460FCF02AE0FC63B681B
S31508014D601149336004F1140E00276246734607970A
S31508014D7040460E4EB04784460FCC0DF1240EAEE8E0
S31508014D800F0023680A4CCEF8003008AB01260093C1
S31508014D901823019340460896294662463B46A04792
S31508014DA030460EB0BDE8F08191000200894801083D
S31508014DB04D4C0108F0B5476A0E4B89B0044607F118
S31508014DC00C000D469847003018BF012002900FCFFE
S31508014DD003AE0FC63B68336002AB009318230193F9
S31508014DE02846214601220023034CA047012009B089
S31508014DF0F0BD00BF47E802084D4C010813B5002471
S31508014E0000940194014CA0471CBD00BF4D4C0108FC
S31508014E10F8B5CB695A0404460D4668D49E0723D5CE
S31508014E20D0F894601AE0716B6A69914215D1318F95
S31508014E306A8B914211D104F1940031462E4B984761
S31508014E402E4B984702460B46C6E90623F368D80750
S31508014E504DD443F00103F36003E01E467368002B4B
S31508014E60E1D104F118021FE0D0F8886018E06969F9
S31508014E70726B914213D1298B728F91420FD104F132
S31508014E80880031461C4B98471C4B98470022C6E9B7
S31508014E9006011B4B06F120012046984727E01E46CE
S31508014EA07368002BE3D1224602F1180017E09668D1
S31508014EB01368002109E051681B6828469847294666
S31508014EC002460023204610E00833B14211D083B1CF
S31508014ED0D3F804E06F690131BE45F5D1EBE78242AB
S31508014EE0E5D10022204629461346064CA047012053
S31508014EF0F8BD0C32F3E700BF6548010819820108BD
S31508014F00494B0108FD4D010838B505460C46034BCA
S31508014F10984728462146024B984738BD9181010892
S31508014F20114E0108002070474FF04A4070474FF074
S31508014F304A40704768B161B188420AD04A680B682D
S31508014F4002B1136003B15A60436881E80900416000
S31508014F5019607047034B1A1D1A6000225A609B603C
S31508014F60704700BF883C0010F7B516461F4656EA3B
S31508014F700703044601D1124B9847124B6846002194
S31508014F809847114BC4E90467186806E0D0E9042379
S31508014F90964277EB030503D3084601680029F5D144
S31508014FA00A4B21469847084B1B689C4203D1304659
S31508014FB03946074B98476846064B9847FEBD00BFDA
S31508014FC06572010861D00808883C0010354F010850
S31508014FD0D97201086DD008082DE9D0431F46094B3F
S31508014FE0164604469847084B804689463046394650
S31508014FF0984710EB080241EB090320460349884705
S31508015000BDE8D083F1D00808EDD00808694F01083A
S3150801501008B50A4600230149884708BDD94F010842
S3150801502038B5144B1B6815461A6842B1D3E90423EF
S31508015030904271EB03042CBF0024032400E00524ED
S31508015040E30701D50C4B9847E8B2DDE904230B4980
S31508015050884714F0060F0CD0064BA2071B6802D529
S31508015060D3E9040103E04FF0FF304FF6FF71024B1D
S31508015070984738BD883C0010D97201084B7201085F
S315080150800068003018BF012070470000044B03F187
S31508015090100103F10C02D960002119615A617047A8
S315080150A0883C0010836813B5044653B10021054BAB
S315080150B0684698470448054B214698476846044B75
S315080150C098471CBD61D00808983C0010354F010867
S315080150D06DD0080808B5836923B18368C0681BB118
S315080150E0984708BD014B984708BD00BFA550010860
S315080150F00023036043608160C260704742680368A9
S3150801510002B1136003B15A6000230360436070471C
S3150801511013B5064B04460021684698472046044BBA
S3150801512098476846034B98471CBD00BF61D00808DD
S31508015130FD5001086DD0080873B50E4D0E4B044697
S315080151400021684698472E680C4B20469847A64288
S315080151500CD155F8043BAB4202D0D3E9040103E074
S315080151604FF0FF304FF6FF71054B98476846054BE0
S3150801517098477CBD883C001061D00808FD5001089D
S31508015180D97201086DD00808F7B5154B6846002194
S315080151909847144B1C682568EDB1134BD4E904678D
S315080151A09847B04271EB070301D2104B984710207C
S315080151B00F4B98470F4B204698472B6813B1D5E9F3
S315080151C0040103E04FF0FF304FF6FF710A4B984791
S315080151D020460A4B98476846094B9847FEBD00BFCB
S315080151E061D00808883C0010F1D0080865720108EA
S315080151F029640108FD500108D9720108D550010832
S315080152006DD0080810B5046823681BB12046034B06
S31508015210984700E01C46204610BD00BFFD50010816
S3150801522013B5064B064C6846002198470548A04722
S315080152300028FBD16846044B98471CBD61D0080875
S3150801524005520108943C00106DD0080837B50D4B7E
S315080152506846002198470C480C4B984760B1856809
S31508015260C4680B4B684698470DB12046A84768465F
S31508015270084B9847012400E004466846064B9847C0
S3150801528020463EBD61D00808943C0010055201082D
S315080152908BD0080887D008086DD0080813B5064BC7
S315080152A0064C6846002198470548A0470028FBD1C7
S315080152B06846044B98471CBD61D008080552010889
S315080152C0883C00106DD00808044B1A1D1A6000228C
S315080152D05A60DA6001229B601A617047A03C00108F
S315080152E0F8B504460D4616461F4609B9104B9847A8
S315080152F00CB90F4B98470022A560E66022606260F0
S315080153001FB12B683046984780B10A4BA3420CD08F
S315080153106168226801B10A6002B151605A68236066
S31508015320626014605C600120F8BD0120F8BD00BF11
S3150801533065720108A43C00102DE9F04F87B0CDE94C
S31508015340042300230360314BDDF840B08046186919
S31508015350002857D01C68002C4DD152E02046D04772
S31508015360D0F8189000210D468DE800033CE0C66987
S315080153707618D6E90023DDE90489904579EB030916
S31508015380CDE902232ED3B368F76803FB07FCDDE9F1
S315080153900223DDE9048912EB0C0243F1000390456F
S315080153A079EB03091ED2DDE90223DDE90401DDF803
S315080153B00080801A61EB0301C8F8004000233A46D1
S315080153C0134CA0470B46A0FB070107FB0311CBE9CA
S315080153D00001D6E90023121843EB0103CBE90023A8
S315080153E001200FE001351831019B9D42BFD1DDF83F
S315080153F00080246801E0DFF81CA020680028ADD1F0
S3150801540000E0204607B0BDE8F08F00BFA03C0010C1
S3150801541089720508D9090108044B186920B1186869
S315080154200368002B08BF0020704700BFA03C00108E
S31508015430054B1B6933B1006828B10368002B08BF07
S315080154400020704718467047A03C00100268836820
S31508015450D0187047F0B50446806A8DB000284DD043
S315080154604368002B4CD148E0E36983B9A369002B53
S3150801547053D1A36A5868A06210B14368002B49D179
S31508015480204669463022274B9847002036E0013BE3
S31508015490E3610022A369F169182000FB031312B125
S315080154A01A69013AE261E2690C214A4359698D1880
S315080154B0895C62699142D7D13178226A01F0020189
S315080154C0C9B211B142F0010201E022F00102D96824
S315080154D068682262D3E9002301FB00F6921943F1B9
S315080154E00003C4E90023AB6821610133181A41435B
